Component: ARM Compiler 5.06 update 4 (build 422) Tool: armlink [4d35d2]

==============================================================================

Section Cross References

    main.o(i.main) refers to kos.o(i.KOS_Boot) for KOS_Boot
    main.o(i.main) refers to snd.o(i.Snd_Play) for Snd_Play
    main.o(i.main) refers to delay.o(i.Delay_Ms) for Delay_Ms
    main.o(i.main) refers to snd.o(i.Snd_Stop) for Snd_Stop
    main.o(i.main) refers to dnl.o(i.Dnl_Proc) for Dnl_Proc
    main.o(i.main) refers to clk.o(i.Clk_GetUsTick) for Clk_GetUsTick
    main.o(i.main) refers to upl.o(i.Upl_Proc) for Upl_Proc
    kos.o(i.KOS_Boot) refers to app.o(i.App_Init) for App_Init
    kos.o(i.KOS_Boot) refers to sch.o(i.Sch_Init) for Sch_Init
    kos.o(i.KOS_Boot) refers to sch.o(i.Sch_Arrange) for Sch_Arrange
    kos.o(i.KOS_Boot) refers to bsp.o(i.Bsp_Config) for Bsp_Config
    kos.o(i.KOS_Boot) refers to act.o(i.Act_Init) for Act_Init
    kos.o(i.KOS_Boot) refers to tim.o(i.Tim_Start) for Tim_Start
    kos.o(i.KOS_Boot) refers to app.o(i.App_Proc) for App_Proc
    kos.o(i.KOS_Boot) refers to snd.o(i.Snd_Proc) for Snd_Proc
    kos.o(i.KOS_Stop) refers to sch.o(i.Sch_Dismiss) for Sch_Dismiss
    kos.o(i.KOS_Stop) refers to act.o(i.Act_Init) for Act_Init
    kos.o(i.KOS_Stop) refers to app.o(i.App_Proc) for App_Proc
==============================================================================

Removing Unused input sections from the image.

    Removing main.o(.rev16_text), (4 bytes).
    Removing main.o(.revsh_text), (4 bytes).
    Removing main.o(.rrx_text), (6 bytes).
    Removing stm32f4xx_it.o(.rev16_text), (4 bytes).
    Removing stm32f4xx_it.o(.revsh_text), (4 bytes).
    Removing stm32f4xx_it.o(.rrx_text), (6 bytes).
    Removing kos.o(.rev16_text), (4 bytes).
    Removing kos.o(.revsh_text), (4 bytes).
    Removing kos.o(.rrx_text), (6 bytes).
    Removing kos.o(i.KOS_Stop), (32 bytes).
    Removing sch.o(i.Sch_Dismiss), (68 bytes).
    Removing act.o(.rev16_text), (4 bytes).
    Removing act.o(.revsh_text), (4 bytes).
    Removing act.o(.rrx_text), (6 bytes).
    Removing app.o(.rev16_text), (4 bytes).
    Removing app.o(.revsh_text), (4 bytes).
    Removing app.o(.rrx_text), (6 bytes).
    Removing cal.o(.rev16_text), (4 bytes).
==============================================================================

Image Symbol Table

    Local Symbols

    Symbol Name                              Value     Ov Type        Size  Object(Section)

    ../clib/../cmprslib/zerorunl2.c          0x00000000   Number         0  __dczerorl2.o ABSOLUTE
    ../clib/microlib/errno.c                 0x00000000   Number         0  errno.o ABSOLUTE
    ../clib/microlib/init/entry.s            0x00000000   Number         0  entry5.o ABSOLUTE
    ../clib/microlib/init/entry.s            0x00000000   Number         0  entry9a.o ABSOLUTE
    ../clib/microlib/init/entry.s            0x00000000   Number         0  entry7a.o ABSOLUTE
    ../clib/microlib/init/entry.s            0x00000000   Number         0  entry7b.o ABSOLUTE
    ../clib/microlib/init/entry.s            0x00000000   Number         0  entry9b.o ABSOLUTE
    ../clib/microlib/init/entry.s            0x00000000   Number         0  entry.o ABSOLUTE
    ../clib/microlib/init/entry.s            0x00000000   Number         0  entry10a.o ABSOLUTE
    ../clib/microlib/init/entry.s            0x00000000   Number         0  entry8a.o ABSOLUTE
    ../clib/microlib/init/entry.s            0x00000000   Number         0  entry8b.o ABSOLUTE
    ../clib/microlib/init/entry.s            0x00000000   Number         0  entry2.o ABSOLUTE
    ../clib/microlib/init/entry.s            0x00000000   Number         0  entry10b.o ABSOLUTE
    ../clib/microlib/init/entry.s            0x00000000   Number         0  entry11b.o ABSOLUTE
    ../clib/microlib/init/entry.s            0x00000000   Number         0  entry11a.o ABSOLUTE
    ../clib/microlib/longlong.c              0x00000000   Number         0  llshl.o ABSOLUTE
    ../clib/microlib/longlong.c              0x00000000   Number         0  llushr.o ABSOLUTE
    ../clib/microlib/longlong.c              0x00000000   Number         0  llsshr.o ABSOLUTE
    ../clib/microlib/malloc/malloc.c         0x00000000   Number         0  mallocra.o ABSOLUTE
    ../clib/microlib/malloc/malloc.c         0x00000000   Number         0  malloc.o ABSOLUTE
    ../clib/microlib/malloc/malloc.c         0x00000000   Number         0  mallocr.o ABSOLUTE
    ../clib/microlib/malloc/malloc.c         0x00000000   Number         0  malloca.o ABSOLUTE
    ../clib/microlib/malloc/mvars.c          0x00000000   Number         0  mvars.o ABSOLUTE
    ../clib/microlib/string/memcpy.c         0x00000000   Number         0  memcpya.o ABSOLUTE
    ../clib/microlib/string/memcpy.c         0x00000000   Number         0  memcpyb.o ABSOLUTE
    ../clib/microlib/string/memset.c         0x00000000   Number         0  memseta.o ABSOLUTE
    ../clib/microlib/string/strlen.c         0x00000000   Number         0  strlen.o ABSOLUTE
    ../clib/microlib/stubs.s                 0x00000000   Number         0  iusefp.o ABSOLUTE
    ../fplib/microlib/d2f.c                  0x00000000   Number         0  d2f.o ABSOLUTE
    ../fplib/microlib/f2d.c                  0x00000000   Number         0  f2d.o ABSOLUTE
    ../fplib/microlib/fpadd.c                0x00000000   Number         0  dadd.o ABSOLUTE
    ../fplib/microlib/fpdiv.c                0x00000000   Number         0  ddiv.o ABSOLUTE
    ../fplib/microlib/fpepilogue.c           0x00000000   Number         0  fepilogue.o ABSOLUTE
    ../fplib/microlib/fpepilogue.c           0x00000000   Number         0  depilogue.o ABSOLUTE
    ../fplib/microlib/fpmul.c                0x00000000   Number         0  dmul.o ABSOLUTE
    ../fplib/microlib/fpneg.c                0x00000000   Number         0  dneg.o ABSOLUTE
    ../fplib/microlib/fpsqrt.c               0x00000000   Number         0  dsqrt.o ABSOLUTE
    ../mathlib/asin.c                        0x00000000   Number         0  asin.o ABSOLUTE
    ../mathlib/asin.c                        0x00000000   Number         0  asin_x.o ABSOLUTE
    ../mathlib/atan.c                        0x00000000   Number         0  atan_x.o ABSOLUTE
    ../mathlib/atan.c                        0x00000000   Number         0  atan.o ABSOLUTE
    ../mathlib/atan2.c                       0x00000000   Number         0  atan2_x.o ABSOLUTE
    ../mathlib/atan2.c                       0x00000000   Number         0  atan2.o ABSOLUTE
    ../mathlib/dunder.c                      0x00000000   Number         0  dunder.o ABSOLUTE
    ../mathlib/fabs.c                        0x00000000   Number         0  fabs.o ABSOLUTE
    ../mathlib/fpclassify.c                  0x00000000   Number         0  fpclassify.o ABSOLUTE
    ../mathlib/poly.c                        0x00000000   Number         0  poly.o ABSOLUTE
    ../mathlib/qnan.c                        0x00000000   Number         0  qnan.o ABSOLUTE
    ../mathlib/sqrt.c                        0x00000000   Number         0  sqrt_x.o ABSOLUTE
    ../mathlib/sqrt.c                        0x00000000   Number         0  sqrt.o ABSOLUTE
    ..\..\app\src\act.c                      0x00000000   Number         0  act.o ABSOLUTE
    ..\..\app\src\app.c                      0x00000000   Number         0  app.o ABSOLUTE
    ..\..\app\src\cal.c                      0x00000000   Number         0  cal.o ABSOLUTE
    ..\..\app\src\can.c                      0x00000000   Number         0  can.o ABSOLUTE
    ..\..\app\src\cci.c                      0x00000000   Number         0  cci.o ABSOLUTE
    ..\..\app\src\cfg.c                      0x00000000   Number         0  cfg.o ABSOLUTE
    ..\..\app\src\clk.c                      0x00000000   Number         0  clk.o ABSOLUTE
    ..\..\app\src\cmd.c                      0x00000000   Number         0  cmd.o ABSOLUTE
    ..\..\app\src\com.c                      0x00000000   Number         0  com.o ABSOLUTE
    ..\..\app\src\ctl.c                      0x00000000   Number         0  ctl.o ABSOLUTE
    ..\..\app\src\dbg.c                      0x00000000   Number         0  dbg.o ABSOLUTE
    ..\..\app\src\dci.c                      0x00000000   Number         0  dci.o ABSOLUTE
    ..\..\app\src\dnl.c                      0x00000000   Number         0  dnl.o ABSOLUTE
    ..\..\app\src\fos.c                      0x00000000   Number         0  fos.o ABSOLUTE
    ..\..\app\src\hci.c                      0x00000000   Number         0  hci.o ABSOLUTE
    ..\..\app\src\ini.c                      0x00000000   Number         0  ini.o ABSOLUTE
    ..\..\app\src\ios.c                      0x00000000   Number         0  ios.o ABSOLUTE
    ..\..\app\src\mec.c                      0x00000000   Number         0  mec.o ABSOLUTE
    ..\..\app\src\odo.c                      0x00000000   Number         0  odo.o ABSOLUTE
    ..\..\app\src\pwr.c                      0x00000000   Number         0  pwr.o ABSOLUTE
    ..\..\app\src\rci.c                      0x00000000   Number         0  rci.o ABSOLUTE
    ..\..\app\src\snd.c                      0x00000000   Number         0  snd.o ABSOLUTE
    ..\..\app\src\srs.c                      0x00000000   Number         0  srs.o ABSOLUTE
    ..\..\app\src\sys.c                      0x00000000   Number         0  sys.o ABSOLUTE
    ..\..\app\src\upd.c                      0x00000000   Number         0  upd.o ABSOLUTE
    ..\..\app\src\upl.c                      0x00000000   Number         0  upl.o ABSOLUTE
    ..\..\app\src\wdg.c                      0x00000000   Number         0  wdg.o ABSOLUTE
    ..\..\app\src\wsm.c                      0x00000000   Number         0  wsm.o ABSOLUTE
    ..\..\asp\src\ahrs.c                     0x00000000   Number         0  ahrs.o ABSOLUTE
    ..\..\asp\src\calib.c                    0x00000000   Number         0  calib.o ABSOLUTE
    ..\..\asp\src\cbus.c                     0x00000000   Number         0  cbus.o ABSOLUTE
    ..\..\asp\src\crc16.c                    0x00000000   Number         0  crc16.o ABSOLUTE
    ..\..\asp\src\dbuf.c                     0x00000000   Number         0  dbuf.o ABSOLUTE
    ..\..\asp\src\dbus.c                     0x00000000   Number         0  dbus.o ABSOLUTE
    ..\..\asp\src\ekf.c                      0x00000000   Number         0  ekf.o ABSOLUTE
    ..\..\asp\src\est.c                      0x00000000   Number         0  est.o ABSOLUTE
    ..\..\asp\src\fifo.c                     0x00000000   Number         0  fifo.o ABSOLUTE
    ..\..\asp\src\fun.c                      0x00000000   Number         0  fun.o ABSOLUTE
    ..\..\asp\src\gdf.c                      0x00000000   Number         0  gdf.o ABSOLUTE
    ..\..\asp\src\hcf.c                      0x00000000   Number         0  hcf.o ABSOLUTE
    ..\..\asp\src\hcp.c                      0x00000000   Number         0  hcp.o ABSOLUTE
    ..\..\asp\src\linkedlist.c               0x00000000   Number         0  linkedlist.o ABSOLUTE
    ..\..\asp\src\linkednode.c               0x00000000   Number         0  linkednode.o ABSOLUTE
    ..\..\asp\src\maf.c                      0x00000000   Number         0  maf.o ABSOLUTE
    ..\..\asp\src\mecanum.c                  0x00000000   Number         0  mecanum.o ABSOLUTE
    ..\..\asp\src\med.c                      0x00000000   Number         0  med.o ABSOLUTE
    ..\..\asp\src\msg.c                      0x00000000   Number         0  msg.o ABSOLUTE
    ..\..\asp\src\pid.c                      0x00000000   Number         0  pid.o ABSOLUTE
    ..\..\asp\src\rcf.c                      0x00000000   Number         0  rcf.o ABSOLUTE
    ..\..\asp\src\rcp.c                      0x00000000   Number         0  rcp.o ABSOLUTE
    ..\..\asp\src\rmp.c                      0x00000000   Number         0  rmp.o ABSOLUTE
    ..\..\asp\src\stack.c                    0x00000000   Number         0  stack.o ABSOLUTE
    ..\..\bsp\src\beep.c                     0x00000000   Number         0  beep.o ABSOLUTE
    ..\..\bsp\src\bsp.c                      0x00000000   Number         0  bsp.o ABSOLUTE
    ..\..\bsp\src\btm.c                      0x00000000   Number         0  btm.o ABSOLUTE
    ..\..\bsp\src\btn.c                      0x00000000   Number         0  btn.o ABSOLUTE
    ..\..\bsp\src\can1.c                     0x00000000   Number         0  can1.o ABSOLUTE
    ..\..\bsp\src\can2.c                     0x00000000   Number         0  can2.o ABSOLUTE
    ..\..\bsp\src\dbi.c                      0x00000000   Number         0  dbi.o ABSOLUTE
    ..\..\bsp\src\ist8310.c                  0x00000000   Number         0  ist8310.o ABSOLUTE
    ..\..\bsp\src\ist8310_drv.c              0x00000000   Number         0  ist8310_drv.o ABSOLUTE
    ..\..\bsp\src\ist8310_i2c.c              0x00000000   Number         0  ist8310_i2c.o ABSOLUTE
    ..\..\bsp\src\ist8310_int.c              0x00000000   Number         0  ist8310_int.o ABSOLUTE
    ..\..\bsp\src\key.c                      0x00000000   Number         0  key.o ABSOLUTE
    ..\..\bsp\src\led.c                      0x00000000   Number         0  led.o ABSOLUTE
    ..\..\bsp\src\mpu6500.c                  0x00000000   Number         0  mpu6500.o ABSOLUTE
    ..\..\bsp\src\mpu6500_drv.c              0x00000000   Number         0  mpu6500_drv.o ABSOLUTE
    ..\..\bsp\src\mpu6500_int.c              0x00000000   Number         0  mpu6500_int.o ABSOLUTE
    ..\..\bsp\src\mpu6500_spi.c              0x00000000   Number         0  mpu6500_spi.o ABSOLUTE
    ..\..\bsp\src\pwm.c                      0x00000000   Number         0  pwm.o ABSOLUTE
    ..\..\bsp\src\rcv.c                      0x00000000   Number         0  rcv.o ABSOLUTE
    ..\..\bsp\src\spi5.c                     0x00000000   Number         0  spi5.o ABSOLUTE
    ..\..\bsp\src\sr04.c                     0x00000000   Number         0  sr04.o ABSOLUTE
    ..\..\bsp\src\stm32util.c                0x00000000   Number         0  stm32util.o ABSOLUTE
    ..\..\bsp\src\tim.c                      0x00000000   Number         0  tim.o ABSOLUTE
    ..\..\bsp\src\tty.c                      0x00000000   Number         0  tty.o ABSOLUTE
    ..\..\drv\src\delay.c                    0x00000000   Number         0  delay.o ABSOLUTE
    ..\..\drv\src\drv.c                      0x00000000   Number         0  drv.o ABSOLUTE
    ..\..\drv\src\flash.c                    0x00000000   Number         0  flash.o ABSOLUTE
    ..\..\drv\src\motor.c                    0x00000000   Number         0  motor.o ABSOLUTE
    ..\..\drv\src\zgyro.c                    0x00000000   Number         0  zgyro.o ABSOLUTE
    ..\..\hal\src\hal.c                      0x00000000   Number         0  hal.o ABSOLUTE
    ..\..\hal\src\hal_gpio.c                 0x00000000   Number         0  hal_gpio.o ABSOLUTE
    ..\..\hal\src\hal_sr04.c                 0x00000000   Number         0  hal_sr04.o ABSOLUTE
    ..\..\hal\src\hal_uart.c                 0x00000000   Number         0  hal_uart.o ABSOLUTE
    ..\..\kos\src\kos.c                      0x00000000   Number         0  kos.o ABSOLUTE
    ..\..\kos\src\sch.c                      0x00000000   Number         0  sch.o ABSOLUTE
    ..\..\rtx\src\arm\port.c                 0x00000000   Number         0  port.o ABSOLUTE
    ..\..\rtx\src\croutine.c                 0x00000000   Number         0  croutine.o ABSOLUTE
    ..\..\rtx\src\event_groups.c             0x00000000   Number         0  event_groups.o ABSOLUTE
    ..\..\rtx\src\heap_2.c                   0x00000000   Number         0  heap_2.o ABSOLUTE
    ..\..\rtx\src\list.c                     0x00000000   Number         0  list.o ABSOLUTE
    ..\..\rtx\src\queue.c                    0x00000000   Number         0  queue.o ABSOLUTE
    ..\..\rtx\src\tasks.c                    0x00000000   Number         0  tasks.o ABSOLUTE
    ..\..\rtx\src\timers.c                   0x00000000   Number         0  timers.o ABSOLUTE
    ..\..\srv\src\can_srv.c                  0x00000000   Number         0  can_srv.o ABSOLUTE
    ..\..\srv\src\com_srv.c                  0x00000000   Number         0  com_srv.o ABSOLUTE
    ..\..\srv\src\ext_srv.c                  0x00000000   Number         0  ext_srv.o ABSOLUTE
    ..\..\srv\src\rcv_srv.c                  0x00000000   Number         0  rcv_srv.o ABSOLUTE
    ..\..\srv\src\srv.c                      0x00000000   Number         0  srv.o ABSOLUTE
    ..\..\srv\src\tim_srv.c                  0x00000000   Number         0  tim_srv.o ABSOLUTE
    ..\..\stl\StdPeriph_Driver\src\misc.c    0x00000000   Number         0  misc.o ABSOLUTE
    ..\..\stl\StdPeriph_Driver\src\stm32f4xx_adc.c 0x00000000   Number         0  stm32f4xx_adc.o ABSOLUTE
    ..\..\stl\StdPeriph_Driver\src\stm32f4xx_can.c 0x00000000   Number         0  stm32f4xx_can.o ABSOLUTE
    ..\..\stl\StdPeriph_Driver\src\stm32f4xx_cec.c 0x00000000   Number         0  stm32f4xx_cec.o ABSOLUTE
    ..\..\stl\StdPeriph_Driver\src\stm32f4xx_crc.c 0x00000000   Number         0  stm32f4xx_crc.o ABSOLUTE
    ..\..\stl\StdPeriph_Driver\src\stm32f4xx_cryp.c 0x00000000   Number         0  stm32f4xx_cryp.o ABSOLUTE
    ..\..\stl\StdPeriph_Driver\src\stm32f4xx_cryp_aes.c 0x00000000   Number         0  stm32f4xx_cryp_aes.o ABSOLUTE
    ..\..\stl\StdPeriph_Driver\src\stm32f4xx_cryp_des.c 0x00000000   Number         0  stm32f4xx_cryp_des.o ABSOLUTE
    ..\..\stl\StdPeriph_Driver\src\stm32f4xx_cryp_tdes.c 0x00000000   Number         0  stm32f4xx_cryp_tdes.o ABSOLUTE
    ..\..\stl\StdPeriph_Driver\src\stm32f4xx_dac.c 0x00000000   Number         0  stm32f4xx_dac.o ABSOLUTE
    ..\..\stl\StdPeriph_Driver\src\stm32f4xx_dbgmcu.c 0x00000000   Number         0  stm32f4xx_dbgmcu.o ABSOLUTE
    ..\..\stl\StdPeriph_Driver\src\stm32f4xx_dcmi.c 0x00000000   Number         0  stm32f4xx_dcmi.o ABSOLUTE
    ..\..\stl\StdPeriph_Driver\src\stm32f4xx_dfsdm.c 0x00000000   Number         0  stm32f4xx_dfsdm.o ABSOLUTE
    ..\..\stl\StdPeriph_Driver\src\stm32f4xx_dma.c 0x00000000   Number         0  stm32f4xx_dma.o ABSOLUTE
    ..\..\stl\StdPeriph_Driver\src\stm32f4xx_dma2d.c 0x00000000   Number         0  stm32f4xx_dma2d.o ABSOLUTE
    ..\..\stl\StdPeriph_Driver\src\stm32f4xx_dsi.c 0x00000000   Number         0  stm32f4xx_dsi.o ABSOLUTE
    ..\..\stl\StdPeriph_Driver\src\stm32f4xx_exti.c 0x00000000   Number         0  stm32f4xx_exti.o ABSOLUTE
    ..\..\stl\StdPeriph_Driver\src\stm32f4xx_flash.c 0x00000000   Number         0  stm32f4xx_flash.o ABSOLUTE
    ..\..\stl\StdPeriph_Driver\src\stm32f4xx_flash_ramfunc.c 0x00000000   Number         0  stm32f4xx_flash_ramfunc.o ABSOLUTE
    ..\..\stl\StdPeriph_Driver\src\stm32f4xx_fmc.c 0x00000000   Number         0  stm32f4xx_fmc.o ABSOLUTE
    ..\..\stl\StdPeriph_Driver\src\stm32f4xx_fmip2c.c 0x00000000   Number         0  stm32f4xx_fmip2c.o ABSOLUTE
    ..\..\stl\StdPeriph_Driver\src\stm32f4xx_fsmc.c 0x00000000   Number         0  stm32f4xx_fsmc.o ABSOLUTE
    ..\..\stl\StdPeriph_Driver\src\stm32f4xx_gpio.c 0x00000000   Number         0  stm32f4xx_gpio.o ABSOLUTE
    ..\..\stl\StdPeriph_Driver\src\stm32f4xx_hash.c 0x00000000   Number         0  stm32f4xx_hash.o ABSOLUTE
    ..\..\stl\StdPeriph_Driver\src\stm32f4xx_hash_md5.c 0x00000000   Number         0  stm32f4xx_hash_md5.o ABSOLUTE
    ..\..\stl\StdPeriph_Driver\src\stm32f4xx_hash_sha1.c 0x00000000   Number         0  stm32f4xx_hash_sha1.o ABSOLUTE
    ..\..\stl\StdPeriph_Driver\src\stm32f4xx_i2c.c 0x00000000   Number         0  stm32f4xx_i2c.o ABSOLUTE
    ..\..\stl\StdPeriph_Driver\src\stm32f4xx_iwdg.c 0x00000000   Number         0  stm32f4xx_iwdg.o ABSOLUTE
    ..\..\stl\StdPeriph_Driver\src\stm32f4xx_lptim.c 0x00000000   Number         0  stm32f4xx_lptim.o ABSOLUTE
    ..\..\stl\StdPeriph_Driver\src\stm32f4xx_ltdc.c 0x00000000   Number         0  stm32f4xx_ltdc.o ABSOLUTE
    ..\..\stl\StdPeriph_Driver\src\stm32f4xx_pwr.c 0x00000000   Number         0  stm32f4xx_pwr.o ABSOLUTE
    ..\..\stl\StdPeriph_Driver\src\stm32f4xx_qspi.c 0x00000000   Number         0  stm32f4xx_qspi.o ABSOLUTE
    ..\..\stl\StdPeriph_Driver\src\stm32f4xx_rcc.c 0x00000000   Number         0  stm32f4xx_rcc.o ABSOLUTE
    ..\..\stl\StdPeriph_Driver\src\stm32f4xx_rng.c 0x00000000   Number         0  stm32f4xx_rng.o ABSOLUTE
    ..\..\stl\StdPeriph_Driver\src\stm32f4xx_rtc.c 0x00000000   Number         0  stm32f4xx_rtc.o ABSOLUTE
    ..\..\stl\StdPeriph_Driver\src\stm32f4xx_sai.c 0x00000000   Number         0  stm32f4xx_sai.o ABSOLUTE
    ..\..\stl\StdPeriph_Driver\src\stm32f4xx_sdio.c 0x00000000   Number         0  stm32f4xx_sdio.o ABSOLUTE
    ..\..\stl\StdPeriph_Driver\src\stm32f4xx_spdifrx.c 0x00000000   Number         0  stm32f4xx_spdifrx.o ABSOLUTE
    ..\..\stl\StdPeriph_Driver\src\stm32f4xx_spi.c 0x00000000   Number         0  stm32f4xx_spi.o ABSOLUTE
    ..\..\stl\StdPeriph_Driver\src\stm32f4xx_syscfg.c 0x00000000   Number         0  stm32f4xx_syscfg.o ABSOLUTE
    ..\..\stl\StdPeriph_Driver\src\stm32f4xx_tim.c 0x00000000   Number         0  stm32f4xx_tim.o ABSOLUTE
    ..\..\stl\StdPeriph_Driver\src\stm32f4xx_usart.c 0x00000000   Number         0  stm32f4xx_usart.o ABSOLUTE
    ..\..\stl\StdPeriph_Driver\src\stm32f4xx_wwdg.c 0x00000000   Number         0  stm32f4xx_wwdg.o ABSOLUTE
    ..\..\stl\src\system_stm32f4xx.c         0x00000000   Number         0  system_stm32f4xx.o ABSOLUTE
    ..\..\usr\src\main.c                     0x00000000   Number         0  main.o ABSOLUTE
    ..\..\usr\src\stm32f4xx_it.c             0x00000000   Number         0  stm32f4xx_it.o ABSOLUTE
    ..\\..\\app\\src\\act.c                  0x00000000   Number         0  act.o ABSOLUTE
    ..\\..\\app\\src\\app.c                  0x00000000   Number         0  app.o ABSOLUTE
    ..\\..\\app\\src\\cal.c                  0x00000000   Number         0  cal.o ABSOLUTE
    ..\\..\\app\\src\\cci.c                  0x00000000   Number         0  cci.o ABSOLUTE
    ..\\..\\app\\src\\cfg.c                  0x00000000   Number         0  cfg.o ABSOLUTE
    ..\\..\\app\\src\\clk.c                  0x00000000   Number         0  clk.o ABSOLUTE
    ..\\..\\app\\src\\cmd.c                  0x00000000   Number         0  cmd.o ABSOLUTE
    ..\\..\\app\\src\\com.c                  0x00000000   Number         0  com.o ABSOLUTE
    ..\\..\\app\\src\\ctl.c                  0x00000000   Number         0  ctl.o ABSOLUTE
    ..\\..\\app\\src\\dci.c                  0x00000000   Number         0  dci.o ABSOLUTE
    ..\\..\\app\\src\\dnl.c                  0x00000000   Number         0  dnl.o ABSOLUTE
    ..\\..\\app\\src\\fos.c                  0x00000000   Number         0  fos.o ABSOLUTE
    ..\\..\\app\\src\\hci.c                  0x00000000   Number         0  hci.o ABSOLUTE
    ..\\..\\app\\src\\ios.c                  0x00000000   Number         0  ios.o ABSOLUTE
    ..\\..\\app\\src\\mec.c                  0x00000000   Number         0  mec.o ABSOLUTE
    ..\\..\\app\\src\\odo.c                  0x00000000   Number         0  odo.o ABSOLUTE
    ..\\..\\app\\src\\rci.c                  0x00000000   Number         0  rci.o ABSOLUTE
    ..\\..\\app\\src\\snd.c                  0x00000000   Number         0  snd.o ABSOLUTE
    ..\\..\\app\\src\\srs.c                  0x00000000   Number         0  srs.o ABSOLUTE
    ..\\..\\app\\src\\upd.c                  0x00000000   Number         0  upd.o ABSOLUTE
    ..\\..\\app\\src\\upl.c                  0x00000000   Number         0  upl.o ABSOLUTE
    ..\\..\\app\\src\\wsm.c                  0x00000000   Number         0  wsm.o ABSOLUTE
    ..\\..\\bsp\\src\\beep.c                 0x00000000   Number         0  beep.o ABSOLUTE
    ..\\..\\bsp\\src\\bsp.c                  0x00000000   Number         0  bsp.o ABSOLUTE
    ..\\..\\bsp\\src\\btm.c                  0x00000000   Number         0  btm.o ABSOLUTE
    ..\\..\\bsp\\src\\btn.c                  0x00000000   Number         0  btn.o ABSOLUTE
    ..\\..\\bsp\\src\\can1.c                 0x00000000   Number         0  can1.o ABSOLUTE
    ..\\..\\bsp\\src\\can2.c                 0x00000000   Number         0  can2.o ABSOLUTE
    ..\\..\\bsp\\src\\dbi.c                  0x00000000   Number         0  dbi.o ABSOLUTE
    ..\\..\\bsp\\src\\ist8310.c              0x00000000   Number         0  ist8310.o ABSOLUTE
    ..\\..\\bsp\\src\\ist8310_drv.c          0x00000000   Number         0  ist8310_drv.o ABSOLUTE
    ..\\..\\bsp\\src\\ist8310_i2c.c          0x00000000   Number         0  ist8310_i2c.o ABSOLUTE
    ..\\..\\bsp\\src\\ist8310_int.c          0x00000000   Number         0  ist8310_int.o ABSOLUTE
    ..\\..\\bsp\\src\\key.c                  0x00000000   Number         0  key.o ABSOLUTE
    ..\\..\\bsp\\src\\led.c                  0x00000000   Number         0  led.o ABSOLUTE
    ..\\..\\bsp\\src\\mpu6500.c              0x00000000   Number         0  mpu6500.o ABSOLUTE
    ..\\..\\bsp\\src\\mpu6500_drv.c          0x00000000   Number         0  mpu6500_drv.o ABSOLUTE
    ..\\..\\bsp\\src\\mpu6500_int.c          0x00000000   Number         0  mpu6500_int.o ABSOLUTE
    ..\\..\\bsp\\src\\mpu6500_spi.c          0x00000000   Number         0  mpu6500_spi.o ABSOLUTE
    ..\\..\\bsp\\src\\pwm.c                  0x00000000   Number         0  pwm.o ABSOLUTE
    ..\\..\\bsp\\src\\rcv.c                  0x00000000   Number         0  rcv.o ABSOLUTE
    ..\\..\\bsp\\src\\spi5.c                 0x00000000   Number         0  spi5.o ABSOLUTE
    ..\\..\\bsp\\src\\sr04.c                 0x00000000   Number         0  sr04.o ABSOLUTE
    ..\\..\\bsp\\src\\stm32util.c            0x00000000   Number         0  stm32util.o ABSOLUTE
    ..\\..\\bsp\\src\\tim.c                  0x00000000   Number         0  tim.o ABSOLUTE
    ..\\..\\bsp\\src\\tty.c                  0x00000000   Number         0  tty.o ABSOLUTE
    ..\\..\\drv\\src\\drv.c                  0x00000000   Number         0  drv.o ABSOLUTE
    ..\\..\\drv\\src\\flash.c                0x00000000   Number         0  flash.o ABSOLUTE
    ..\\..\\drv\\src\\motor.c                0x00000000   Number         0  motor.o ABSOLUTE
    ..\\..\\drv\\src\\zgyro.c                0x00000000   Number         0  zgyro.o ABSOLUTE
    ..\\..\\kos\\src\\kos.c                  0x00000000   Number         0  kos.o ABSOLUTE
    ..\\..\\rtx\\src\\arm\\port.c            0x00000000   Number         0  port.o ABSOLUTE
    ..\\..\\srv\\src\\com_srv.c              0x00000000   Number         0  com_srv.o ABSOLUTE
    ..\\..\\srv\\src\\ext_srv.c              0x00000000   Number         0  ext_srv.o ABSOLUTE
    ..\\..\\srv\\src\\rcv_srv.c              0x00000000   Number         0  rcv_srv.o ABSOLUTE
    ..\\..\\srv\\src\\srv.c                  0x00000000   Number         0  srv.o ABSOLUTE
    ..\\..\\srv\\src\\tim_srv.c              0x00000000   Number         0  tim_srv.o ABSOLUTE
    ..\\..\\stl\\StdPeriph_Driver\\src\\misc.c 0x00000000   Number         0  misc.o ABSOLUTE
    ..\\..\\stl\\StdPeriph_Driver\\src\\stm32f4xx_adc.c 0x00000000   Number         0  stm32f4xx_adc.o ABSOLUTE
    ..\\..\\stl\\StdPeriph_Driver\\src\\stm32f4xx_can.c 0x00000000   Number         0  stm32f4xx_can.o ABSOLUTE
    ..\\..\\stl\\StdPeriph_Driver\\src\\stm32f4xx_cec.c 0x00000000   Number         0  stm32f4xx_cec.o ABSOLUTE
    ..\\..\\stl\\StdPeriph_Driver\\src\\stm32f4xx_crc.c 0x00000000   Number         0  stm32f4xx_crc.o ABSOLUTE
    ..\\..\\stl\\StdPeriph_Driver\\src\\stm32f4xx_cryp.c 0x00000000   Number         0  stm32f4xx_cryp.o ABSOLUTE
    ..\\..\\stl\\StdPeriph_Driver\\src\\stm32f4xx_cryp_aes.c 0x00000000   Number         0  stm32f4xx_cryp_aes.o ABSOLUTE
    ..\\..\\stl\\StdPeriph_Driver\\src\\stm32f4xx_cryp_des.c 0x00000000   Number         0  stm32f4xx_cryp_des.o ABSOLUTE
    ..\\..\\stl\\StdPeriph_Driver\\src\\stm32f4xx_cryp_tdes.c 0x00000000   Number         0  stm32f4xx_cryp_tdes.o ABSOLUTE
    ..\\..\\stl\\StdPeriph_Driver\\src\\stm32f4xx_dac.c 0x00000000   Number         0  stm32f4xx_dac.o ABSOLUTE
    ..\\..\\stl\\StdPeriph_Driver\\src\\stm32f4xx_dbgmcu.c 0x00000000   Number         0  stm32f4xx_dbgmcu.o ABSOLUTE
    ..\\..\\stl\\StdPeriph_Driver\\src\\stm32f4xx_dcmi.c 0x00000000   Number         0  stm32f4xx_dcmi.o ABSOLUTE
    ..\\..\\stl\\StdPeriph_Driver\\src\\stm32f4xx_dfsdm.c 0x00000000   Number         0  stm32f4xx_dfsdm.o ABSOLUTE
    ..\\..\\stl\\StdPeriph_Driver\\src\\stm32f4xx_dma.c 0x00000000   Number         0  stm32f4xx_dma.o ABSOLUTE
    ..\\..\\stl\\StdPeriph_Driver\\src\\stm32f4xx_dma2d.c 0x00000000   Number         0  stm32f4xx_dma2d.o ABSOLUTE
    ..\\..\\stl\\StdPeriph_Driver\\src\\stm32f4xx_dsi.c 0x00000000   Number         0  stm32f4xx_dsi.o ABSOLUTE
    ..\\..\\stl\\StdPeriph_Driver\\src\\stm32f4xx_exti.c 0x00000000   Number         0  stm32f4xx_exti.o ABSOLUTE
    ..\\..\\stl\\StdPeriph_Driver\\src\\stm32f4xx_flash.c 0x00000000   Number         0  stm32f4xx_flash.o ABSOLUTE
    ..\\..\\stl\\StdPeriph_Driver\\src\\stm32f4xx_flash_ramfunc.c 0x00000000   Number         0  stm32f4xx_flash_ramfunc.o ABSOLUTE
    ..\\..\\stl\\StdPeriph_Driver\\src\\stm32f4xx_fmc.c 0x00000000   Number         0  stm32f4xx_fmc.o ABSOLUTE
    ..\\..\\stl\\StdPeriph_Driver\\src\\stm32f4xx_fmip2c.c 0x00000000   Number         0  stm32f4xx_fmip2c.o ABSOLUTE
    ..\\..\\stl\\StdPeriph_Driver\\src\\stm32f4xx_fsmc.c 0x00000000   Number         0  stm32f4xx_fsmc.o ABSOLUTE
    ..\\..\\stl\\StdPeriph_Driver\\src\\stm32f4xx_gpio.c 0x00000000   Number         0  stm32f4xx_gpio.o ABSOLUTE
    ..\\..\\stl\\StdPeriph_Driver\\src\\stm32f4xx_hash.c 0x00000000   Number         0  stm32f4xx_hash.o ABSOLUTE
    ..\\..\\stl\\StdPeriph_Driver\\src\\stm32f4xx_hash_md5.c 0x00000000   Number         0  stm32f4xx_hash_md5.o ABSOLUTE
    ..\\..\\stl\\StdPeriph_Driver\\src\\stm32f4xx_hash_sha1.c 0x00000000   Number         0  stm32f4xx_hash_sha1.o ABSOLUTE
    ..\\..\\stl\\StdPeriph_Driver\\src\\stm32f4xx_i2c.c 0x00000000   Number         0  stm32f4xx_i2c.o ABSOLUTE
    ..\\..\\stl\\StdPeriph_Driver\\src\\stm32f4xx_iwdg.c 0x00000000   Number         0  stm32f4xx_iwdg.o ABSOLUTE
    ..\\..\\stl\\StdPeriph_Driver\\src\\stm32f4xx_lptim.c 0x00000000   Number         0  stm32f4xx_lptim.o ABSOLUTE
    ..\\..\\stl\\StdPeriph_Driver\\src\\stm32f4xx_ltdc.c 0x00000000   Number         0  stm32f4xx_ltdc.o ABSOLUTE
    ..\\..\\stl\\StdPeriph_Driver\\src\\stm32f4xx_pwr.c 0x00000000   Number         0  stm32f4xx_pwr.o ABSOLUTE
    ..\\..\\stl\\StdPeriph_Driver\\src\\stm32f4xx_qspi.c 0x00000000   Number         0  stm32f4xx_qspi.o ABSOLUTE
    ..\\..\\stl\\StdPeriph_Driver\\src\\stm32f4xx_rcc.c 0x00000000   Number         0  stm32f4xx_rcc.o ABSOLUTE
    ..\\..\\stl\\StdPeriph_Driver\\src\\stm32f4xx_rng.c 0x00000000   Number         0  stm32f4xx_rng.o ABSOLUTE
    ..\\..\\stl\\StdPeriph_Driver\\src\\stm32f4xx_rtc.c 0x00000000   Number         0  stm32f4xx_rtc.o ABSOLUTE
    ..\\..\\stl\\StdPeriph_Driver\\src\\stm32f4xx_sai.c 0x00000000   Number         0  stm32f4xx_sai.o ABSOLUTE
    ..\\..\\stl\\StdPeriph_Driver\\src\\stm32f4xx_sdio.c 0x00000000   Number         0  stm32f4xx_sdio.o ABSOLUTE
    ..\\..\\stl\\StdPeriph_Driver\\src\\stm32f4xx_spdifrx.c 0x00000000   Number         0  stm32f4xx_spdifrx.o ABSOLUTE
    ..\\..\\stl\\StdPeriph_Driver\\src\\stm32f4xx_spi.c 0x00000000   Number         0  stm32f4xx_spi.o ABSOLUTE
    ..\\..\\stl\\StdPeriph_Driver\\src\\stm32f4xx_syscfg.c 0x00000000   Number         0  stm32f4xx_syscfg.o ABSOLUTE
    ..\\..\\stl\\StdPeriph_Driver\\src\\stm32f4xx_tim.c 0x00000000   Number         0  stm32f4xx_tim.o ABSOLUTE
    ..\\..\\stl\\StdPeriph_Driver\\src\\stm32f4xx_usart.c 0x00000000   Number         0  stm32f4xx_usart.o ABSOLUTE
    ..\\..\\stl\\StdPeriph_Driver\\src\\stm32f4xx_wwdg.c 0x00000000   Number         0  stm32f4xx_wwdg.o ABSOLUTE
    ..\\..\\stl\\src\\arm\\startup_stm32f427xx.s 0x00000000   Number         0  startup_stm32f427xx.o ABSOLUTE
    ..\\..\\stl\\src\\system_stm32f4xx.c     0x00000000   Number         0  system_stm32f4xx.o ABSOLUTE
    ..\\..\\usr\\src\\main.c                 0x00000000   Number         0  main.o ABSOLUTE
    ..\\..\\usr\\src\\stm32f4xx_it.c         0x00000000   Number         0  stm32f4xx_it.o ABSOLUTE
    cdcmple.s                                0x00000000   Number         0  cdcmple.o ABSOLUTE
    dc.s                                     0x00000000   Number         0  dc.o ABSOLUTE
    handlers.s                               0x00000000   Number         0  handlers.o ABSOLUTE
    init.s                                   0x00000000   Number         0  init.o ABSOLUTE
    RESET                                    0x08000000   Section      428  startup_stm32f427xx.o(RESET)
    .ARM.Collect$$$$00000000                 0x080001ac   Section        0  entry.o(.ARM.Collect$$$$00000000)
    .ARM.Collect$$$$00000001                 0x080001ac   Section        4  entry2.o(.ARM.Collect$$$$00000001)
    .ARM.Collect$$$$00000004                 0x080001b0   Section        4  entry5.o(.ARM.Collect$$$$00000004)
    .ARM.Collect$$$$00000008                 0x080001b4   Section        0  entry7b.o(.ARM.Collect$$$$00000008)
    .ARM.Collect$$$$0000000A                 0x080001b4   Section        0  entry8b.o(.ARM.Collect$$$$0000000A)
    .ARM.Collect$$$$0000000B                 0x080001b4   Section        8  entry9a.o(.ARM.Collect$$$$0000000B)
    .ARM.Collect$$$$0000000D                 0x080001bc   Section        0  entry10a.o(.ARM.Collect$$$$0000000D)
    .ARM.Collect$$$$0000000F                 0x080001bc   Section        0  entry11a.o(.ARM.Collect$$$$0000000F)
    .ARM.Collect$$$$00002712                 0x080001bc   Section        4  entry2.o(.ARM.Collect$$$$00002712)
    __lit__00000000                          0x080001bc   Data           4  entry2.o(.ARM.Collect$$$$00002712)
    .emb_text                                0x080001c0   Section      182  port.o(.emb_text)
    $v0                                      0x080001c0   Number         0  port.o(.emb_text)
    .text                                    0x08000278   Section       36  startup_stm32f427xx.o(.text)
    $v0                                      0x08000278   Number         0  startup_stm32f427xx.o(.text)
    .text                                    0x0800029c   Section        0  memcpya.o(.text)
    .text                                    0x080002c0   Section        0  memseta.o(.text)
    .text                                    0x080002e4   Section        0  strlen.o(.text)
    .text                                    0x080002f4   Section       36  init.o(.text)
    .text                                    0x08000318   Section        0  __dczerorl2.o(.text)
    i.Act_Init                               0x08000370   Section        0  act.o(i.Act_Init)
    i.Act_Proc                               0x0800039c   Section        0  act.o(i.Act_Proc)
    i.App_Init                               0x080003ec   Section        0  app.o(i.App_Init)
    i.App_Proc                               0x08000442   Section        0  app.o(i.App_Proc)
    i.Beep_Config                            0x08000458   Section        0  beep.o(i.Beep_Config)
    i.Beep_Sing                              0x0800048c   Section        0  beep.o(i.Beep_Sing)
    i.Beep_SingStartupMusic                  0x080004b0   Section        0  beep.o(i.Beep_SingStartupMusic)
    i.Bsp_Config                             0x080004c4   Section        0  bsp.o(i.Bsp_Config)
    i.BtmRxCallback                          0x08000520   Section        0  com_srv.o(i.BtmRxCallback)
    i.Btm_Config                             0x08000524   Section        0  btm.o(i.Btm_Config)
    i.Btm_Proc                               0x08000594   Section        0  com.o(i.Btm_Proc)
    i.Btm_PutCh                              0x0800059c   Section        0  btm.o(i.Btm_PutCh)
    i.Btn_Config                             0x080005d8   Section        0  btn.o(i.Btn_Config)
    i.BusFault_Handler                       0x080005e4   Section        0  stm32f4xx_it.o(i.BusFault_Handler)
    i.CAN1_RX0_IRQHandler                    0x080005e8   Section        0  can1.o(i.CAN1_RX0_IRQHandler)
    i.CAN1_TX_IRQHandler                     0x0800062c   Section        0  can1.o(i.CAN1_TX_IRQHandler)
    i.CAN2_RX0_IRQHandler                    0x08000650   Section        0  can2.o(i.CAN2_RX0_IRQHandler)
    i.CAN2_TX_IRQHandler                     0x08000694   Section        0  can2.o(i.CAN2_TX_IRQHandler)
    i.CAN_ClearFlag                          0x080006b8   Section        0  stm32f4xx_can.o(i.CAN_ClearFlag)
    i.CAN_ClearITPendingBit                  0x080006e8   Section        0  stm32f4xx_can.o(i.CAN_ClearITPendingBit)
    i.CAN_Config                             0x08000760   Section        0  stm32util.o(i.CAN_Config)
    i.CAN_FilterInit                         0x080007cc   Section        0  stm32f4xx_can.o(i.CAN_FilterInit)
    i.CAN_Filter_Config                      0x08000898   Section        0  stm32util.o(i.CAN_Filter_Config)
    i.CAN_GetITStatus                        0x080008d0   Section        0  stm32f4xx_can.o(i.CAN_GetITStatus)
    i.CAN_ITConfig                           0x08000978   Section        0  stm32f4xx_can.o(i.CAN_ITConfig)
    i.CAN_Init                               0x08000988   Section        0  stm32f4xx_can.o(i.CAN_Init)
    i.CAN_Receive                            0x08000a70   Section        0  stm32f4xx_can.o(i.CAN_Receive)
    i.CAN_Transmit                           0x08000b00   Section        0  stm32f4xx_can.o(i.CAN_Transmit)
    i.CBUS_Init                              0x08000ba4   Section        0  cbus.o(i.CBUS_Init)
    i.CM_Cmd                                 0x08000baa   Section        0  motor.o(i.CM_Cmd)
    i.CRC16Append                            0x08000bf8   Section        0  crc16.o(i.CRC16Append)
    i.CRC16Calc                              0x08000c1c   Section        0  crc16.o(i.CRC16Calc)
    i.CRC16Check                             0x08000c4c   Section        0  crc16.o(i.CRC16Check)
    i.Cal_Init                               0x08000c7c   Section        0  cal.o(i.Cal_Init)
    i.Cal_IsDone                             0x08000c98   Section        0  cal.o(i.Cal_IsDone)
    i.Cal_Proc                               0x08000c9c   Section        0  cal.o(i.Cal_Proc)
    i.Cal_ProcGim                            0x08000ca0   Section        0  cal.o(i.Cal_ProcGim)
    Cal_ProcGim                              0x08000ca1   Thumb Code    88  cal.o(i.Cal_ProcGim)
    i.Cal_ProcGpe                            0x08000d14   Section        0  cal.o(i.Cal_ProcGpe)
    Cal_ProcGpe                              0x08000d15   Thumb Code   204  cal.o(i.Cal_ProcGpe)
    i.Cal_SetFlag                            0x08000e00   Section        0  cal.o(i.Cal_SetFlag)
    i.Cal_SetGpeh                            0x08000e10   Section        0  cal.o(i.Cal_SetGpeh)
    Cal_SetGpeh                              0x08000e11   Thumb Code    46  cal.o(i.Cal_SetGpeh)
    i.Cal_SetGpel                            0x08000e54   Section        0  cal.o(i.Cal_SetGpel)
    Cal_SetGpel                              0x08000e55   Thumb Code    46  cal.o(i.Cal_SetGpel)
    i.Can1RxCallback                         0x08000e98   Section        0  can_srv.o(i.Can1RxCallback)
    i.Can1_Config                            0x08000e9c   Section        0  can1.o(i.Can1_Config)
    i.Can2RxCallback                         0x08000f0c   Section        0  can_srv.o(i.Can2RxCallback)
    i.Can2_Config                            0x08000f10   Section        0  can2.o(i.Can2_Config)
    i.Can_Init                               0x08000f84   Section        0  can.o(i.Can_Init)
    i.Can_Proc                               0x08000fb0   Section        0  can.o(i.Can_Proc)
    i.Cci_Proc                               0x08001064   Section        0  cci.o(i.Cci_Proc)
    i.Cfg_GetFlag                            0x08001078   Section        0  cfg.o(i.Cfg_GetFlag)
    i.Cfg_Init                               0x08001084   Section        0  cfg.o(i.Cfg_Init)
    i.Cfg_IsSynced                           0x08001188   Section        0  cfg.o(i.Cfg_IsSynced)
    i.Cfg_Load                               0x0800119c   Section        0  cfg.o(i.Cfg_Load)
    i.Cfg_Proc                               0x080011a4   Section        0  cfg.o(i.Cfg_Proc)
    i.Cfg_Save                               0x080011c0   Section        0  cfg.o(i.Cfg_Save)
    i.ChassisStateCtl                        0x080011c8   Section        0  ctl.o(i.ChassisStateCtl)
    ChassisStateCtl                          0x080011c9   Thumb Code   142  ctl.o(i.ChassisStateCtl)
    i.CheckITStatus                          0x08001264   Section        0  stm32f4xx_can.o(i.CheckITStatus)
    CheckITStatus                            0x08001265   Thumb Code    12  stm32f4xx_can.o(i.CheckITStatus)
    i.Clk_GetMsTick                          0x08001270   Section        0  clk.o(i.Clk_GetMsTick)
    i.Clk_GetUsTick                          0x08001280   Section        0  clk.o(i.Clk_GetUsTick)
    i.Clk_Init                               0x08001288   Section        0  clk.o(i.Clk_Init)
    i.Cmd_Init                               0x0800129c   Section        0  cmd.o(i.Cmd_Init)
    i.Cmd_Proc                               0x080012a8   Section        0  cmd.o(i.Cmd_Proc)
    i.Com_Init                               0x080013e4   Section        0  com.o(i.Com_Init)
    i.Cpl_Init                               0x080013f4   Section        0  ctl.o(i.Cpl_Init)
    Cpl_Init                                 0x080013f5   Thumb Code    94  ctl.o(i.Cpl_Init)
    i.Ctl_Init                               0x08001458   Section        0  ctl.o(i.Ctl_Init)
    i.Ctl_Proc                               0x080014c4   Section        0  ctl.o(i.Ctl_Proc)
    i.Cvl_Init                               0x080014f4   Section        0  ctl.o(i.Cvl_Init)
    Cvl_Init                                 0x080014f5   Thumb Code    94  ctl.o(i.Cvl_Init)
    i.DBUS_Dec                               0x08001558   Section        0  dbus.o(i.DBUS_Dec)
    i.DBUS_Init                              0x08001570   Section        0  dbus.o(i.DBUS_Init)
    i.DMA_Cmd                                0x08001584   Section        0  stm32f4xx_dma.o(i.DMA_Cmd)
    i.DMA_Config                             0x08001598   Section        0  stm32util.o(i.DMA_Config)
    i.DMA_DoubleBufferModeCmd                0x08001604   Section        0  stm32f4xx_dma.o(i.DMA_DoubleBufferModeCmd)
    i.DMA_DoubleBufferModeConfig             0x08001618   Section        0  stm32f4xx_dma.o(i.DMA_DoubleBufferModeConfig)
    i.DMA_GetCurrDataCounter                 0x0800162e   Section        0  stm32f4xx_dma.o(i.DMA_GetCurrDataCounter)
    i.DMA_GetCurrentMemoryTarget             0x08001634   Section        0  stm32f4xx_dma.o(i.DMA_GetCurrentMemoryTarget)
    i.DMA_Init                               0x08001644   Section        0  stm32f4xx_dma.o(i.DMA_Init)
    i.DbiRxCallback                          0x08001698   Section        0  com_srv.o(i.DbiRxCallback)
    i.Dbi_Config                             0x0800169c   Section        0  dbi.o(i.Dbi_Config)
    i.Dbi_GetCh                              0x0800170c   Section        0  dbi.o(i.Dbi_GetCh)
    i.Dbi_Proc                               0x08001750   Section        0  com.o(i.Dbi_Proc)
    i.Dbi_PutCh                              0x08001758   Section        0  dbi.o(i.Dbi_PutCh)
    i.Dci_Init                               0x08001794   Section        0  dci.o(i.Dci_Init)
    i.Dci_Proc                               0x080017ac   Section        0  dci.o(i.Dci_Proc)
    i.DebugMon_Handler                       0x080017f4   Section        0  stm32f4xx_it.o(i.DebugMon_Handler)
    i.Delay_Ms                               0x080017f6   Section        0  delay.o(i.Delay_Ms)
    i.Dnl_Init                               0x08001810   Section        0  dnl.o(i.Dnl_Init)
    i.Dnl_Proc                               0x08001830   Section        0  dnl.o(i.Dnl_Proc)
    i.EXTI0_IRQHandler                       0x080019a8   Section        0  stm32util.o(i.EXTI0_IRQHandler)
    i.EXTI15_10_IRQHandler                   0x080019d8   Section        0  stm32util.o(i.EXTI15_10_IRQHandler)
    i.EXTI1_IRQHandler                       0x08001aac   Section        0  stm32util.o(i.EXTI1_IRQHandler)
    i.EXTI2_IRQHandler                       0x08001adc   Section        0  stm32util.o(i.EXTI2_IRQHandler)
    i.EXTI3_IRQHandler                       0x08001b0c   Section        0  stm32util.o(i.EXTI3_IRQHandler)
    i.EXTI4_IRQHandler                       0x08001b3c   Section        0  stm32util.o(i.EXTI4_IRQHandler)
    i.EXTI9_5_IRQHandler                     0x08001b6c   Section        0  stm32util.o(i.EXTI9_5_IRQHandler)
    i.EXTI_Bind                              0x08001c14   Section        0  stm32util.o(i.EXTI_Bind)
    i.EXTI_ClearFlag                         0x08001d30   Section        0  stm32f4xx_exti.o(i.EXTI_ClearFlag)
    i.EXTI_ClearITPendingBit                 0x08001d3c   Section        0  stm32f4xx_exti.o(i.EXTI_ClearITPendingBit)
    i.EXTI_Config                            0x08001d48   Section        0  stm32util.o(i.EXTI_Config)
    i.EXTI_GetITStatus                       0x08001d70   Section        0  stm32f4xx_exti.o(i.EXTI_GetITStatus)
    i.EXTI_Init                              0x08001d84   Section        0  stm32f4xx_exti.o(i.EXTI_Init)
    i.EXTI_SetHandler                        0x08001df4   Section        0  stm32util.o(i.EXTI_SetHandler)
    i.Ekf_Init                               0x08001e04   Section        0  ekf.o(i.Ekf_Init)
    i.Ekf_Proc                               0x08001e0c   Section        0  ekf.o(i.Ekf_Proc)
    i.Ekf_Reset                              0x08001e58   Section        0  ekf.o(i.Ekf_Reset)
    i.FIFO_Flush                             0x08001e74   Section        0  fifo.o(i.FIFO_Flush)
    i.FIFO_GetFree                           0x08001e8a   Section        0  fifo.o(i.FIFO_GetFree)
    i.FIFO_GetSize                           0x08001e92   Section        0  fifo.o(i.FIFO_GetSize)
    i.FIFO_GetUsed                           0x08001e96   Section        0  fifo.o(i.FIFO_GetUsed)
    i.FIFO_Init                              0x08001e9a   Section        0  fifo.o(i.FIFO_Init)
    i.FIFO_IsEmpty                           0x08001ea2   Section        0  fifo.o(i.FIFO_IsEmpty)
    i.FIFO_IsFull                            0x08001eae   Section        0  fifo.o(i.FIFO_IsFull)
    i.FIFO_Peek                              0x08001ebe   Section        0  fifo.o(i.FIFO_Peek)
    i.FIFO_Pop                               0x08001ee6   Section        0  fifo.o(i.FIFO_Pop)
    i.FIFO_Push                              0x08001f1a   Section        0  fifo.o(i.FIFO_Push)
    i.FLASH_DataCacheCmd                     0x08001f54   Section        0  stm32f4xx_flash.o(i.FLASH_DataCacheCmd)
    i.FLASH_EraseSector                      0x08001f70   Section        0  stm32f4xx_flash.o(i.FLASH_EraseSector)
    i.FLASH_GetStatus                        0x08001fdc   Section        0  stm32f4xx_flash.o(i.FLASH_GetStatus)
    i.FLASH_Lock                             0x08002018   Section        0  stm32f4xx_flash.o(i.FLASH_Lock)
    i.FLASH_ProgramByte                      0x08002028   Section        0  stm32f4xx_flash.o(i.FLASH_ProgramByte)
    i.FLASH_Unlock                           0x08002060   Section        0  stm32f4xx_flash.o(i.FLASH_Unlock)
    i.FLASH_WaitForLastOperation             0x08002084   Section        0  stm32f4xx_flash.o(i.FLASH_WaitForLastOperation)
    i.FS_Cpy                                 0x080020a2   Section        0  sys.o(i.FS_Cpy)
    i.FS_Det                                 0x080020a6   Section        0  sys.o(i.FS_Det)
    i.Flag_Cpy                               0x080020aa   Section        0  fun.o(i.Flag_Cpy)
    i.Flag_Det                               0x080020d0   Section        0  fun.o(i.Flag_Det)
    i.Flag_Get                               0x080020de   Section        0  fun.o(i.Flag_Get)
    i.Flag_Set                               0x080020e4   Section        0  fun.o(i.Flag_Set)
    i.Flash_GetSector                        0x080020ec   Section        0  flash.o(i.Flash_GetSector)
    Flash_GetSector                          0x080020ed   Thumb Code   114  flash.o(i.Flash_GetSector)
    i.Flash_Read                             0x0800218c   Section        0  flash.o(i.Flash_Read)
    i.Flash_Write                            0x080021a4   Section        0  flash.o(i.Flash_Write)
    i.Fos_Read                               0x08002224   Section        0  fos.o(i.Fos_Read)
    i.Fos_Write                              0x08002234   Section        0  fos.o(i.Fos_Write)
    i.GM_Cmd                                 0x08002244   Section        0  motor.o(i.GM_Cmd)
    i.GPIO_Af                                0x0800228c   Section        0  stm32util.o(i.GPIO_Af)
    i.GPIO_Config                            0x080022b4   Section        0  stm32util.o(i.GPIO_Config)
    i.GPIO_In                                0x080023cc   Section        0  stm32util.o(i.GPIO_In)
    i.GPIO_Init                              0x080023dc   Section        0  stm32f4xx_gpio.o(i.GPIO_Init)
    i.GPIO_Out                               0x0800247e   Section        0  stm32util.o(i.GPIO_Out)
    i.GPIO_PinAFConfig                       0x08002490   Section        0  stm32f4xx_gpio.o(i.GPIO_PinAFConfig)
    i.GPIO_ReadInputDataBit                  0x080024b0   Section        0  stm32f4xx_gpio.o(i.GPIO_ReadInputDataBit)
    i.GPIO_ReadOutputDataBit                 0x080024be   Section        0  stm32f4xx_gpio.o(i.GPIO_ReadOutputDataBit)
    i.GPIO_ResetBits                         0x080024cc   Section        0  stm32f4xx_gpio.o(i.GPIO_ResetBits)
    i.GPIO_SetBits                           0x080024d0   Section        0  stm32f4xx_gpio.o(i.GPIO_SetBits)
    i.GetChassisStateRef                     0x080024d4   Section        0  cci.o(i.GetChassisStateRef)
    GetChassisStateRef                       0x080024d5   Thumb Code   446  cci.o(i.GetChassisStateRef)
    i.GetChassisStateRef                     0x080026a4   Section        0  hci.o(i.GetChassisStateRef)
    GetChassisStateRef                       0x080026a5   Thumb Code   224  hci.o(i.GetChassisStateRef)
    i.GetChassisStateRef                     0x0800279c   Section        0  rci.o(i.GetChassisStateRef)
    GetChassisStateRef                       0x0800279d   Thumb Code   176  rci.o(i.GetChassisStateRef)
    i.GetFunctionalStateFdb                  0x08002860   Section        0  odo.o(i.GetFunctionalStateFdb)
    GetFunctionalStateFdb                    0x08002861   Thumb Code   160  odo.o(i.GetFunctionalStateFdb)
    i.GetGrabberStateRef                     0x08002914   Section        0  cci.o(i.GetGrabberStateRef)
    GetGrabberStateRef                       0x08002915   Thumb Code   532  cci.o(i.GetGrabberStateRef)
    i.GetGrabberStateRef                     0x08002b4c   Section        0  hci.o(i.GetGrabberStateRef)
    GetGrabberStateRef                       0x08002b4d   Thumb Code   234  hci.o(i.GetGrabberStateRef)
    i.GetGrabberStateRef                     0x08002c4c   Section        0  rci.o(i.GetGrabberStateRef)
    GetGrabberStateRef                       0x08002c4d   Thumb Code   214  rci.o(i.GetGrabberStateRef)
    i.Gpl_Init                               0x08002d3c   Section        0  ctl.o(i.Gpl_Init)
    Gpl_Init                                 0x08002d3d   Thumb Code    94  ctl.o(i.Gpl_Init)
    i.GrabberStateCtl                        0x08002da0   Section        0  ctl.o(i.GrabberStateCtl)
    GrabberStateCtl                          0x08002da1   Thumb Code    94  ctl.o(i.GrabberStateCtl)
    i.Gvl_Init                               0x08002e1c   Section        0  ctl.o(i.Gvl_Init)
    Gvl_Init                                 0x08002e1d   Thumb Code    94  ctl.o(i.Gvl_Init)
    i.HardFault_Handler                      0x08002e80   Section        0  stm32f4xx_it.o(i.HardFault_Handler)
    i.Hcf_Init                               0x08002e84   Section        0  hcf.o(i.Hcf_Init)
    i.Hcf_Proc                               0x08002eaa   Section        0  hcf.o(i.Hcf_Proc)
    i.Hci_Init                               0x08002eec   Section        0  hci.o(i.Hci_Init)
    i.Hci_MouseBtn                           0x08002f20   Section        0  hci.o(i.Hci_MouseBtn)
    i.Hci_PreProc                            0x08002f30   Section        0  hci.o(i.Hci_PreProc)
    i.Hci_Proc                               0x08002f3c   Section        0  hci.o(i.Hci_Proc)
    i.Hcp_Dec                                0x08002f54   Section        0  hcp.o(i.Hcp_Dec)
    i.Hcp_Init                               0x08002f72   Section        0  hcp.o(i.Hcp_Init)
    i.IST8310_AuxCfg                         0x08002f8e   Section        0  ist8310_drv.o(i.IST8310_AuxCfg)
    i.IST8310_Config                         0x08003038   Section        0  ist8310.o(i.IST8310_Config)
    i.IST8310_I2C_Read_Reg                   0x08003046   Section        0  ist8310_i2c.o(i.IST8310_I2C_Read_Reg)
    i.IST8310_I2C_Write_Reg                  0x080030a8   Section        0  ist8310_i2c.o(i.IST8310_I2C_Write_Reg)
    i.IST8310_Init                           0x080030fe   Section        0  ist8310_drv.o(i.IST8310_Init)
    i.Ini_Init                               0x08003274   Section        0  ini.o(i.Ini_Init)
    i.Ini_IsDone                             0x08003280   Section        0  ini.o(i.Ini_IsDone)
    i.Ini_Proc                               0x08003284   Section        0  ini.o(i.Ini_Proc)
    i.Ios_GetCh                              0x08003314   Section        0  ios.o(i.Ios_GetCh)
    i.Ios_Init                               0x08003318   Section        0  ios.o(i.Ios_Init)
    i.Ios_PutCh                              0x08003334   Section        0  ios.o(i.Ios_PutCh)
    i.Ios_SetIn                              0x08003348   Section        0  ios.o(i.Ios_SetIn)
    i.Ios_SetOut                             0x08003358   Section        0  ios.o(i.Ios_SetOut)
    i.KOS_Boot                               0x08003368   Section        0  kos.o(i.KOS_Boot)
    i.Key_Config                             0x0800339c   Section        0  key.o(i.Key_Config)
    i.Led_Config                             0x080033c8   Section        0  led.o(i.Led_Config)
    i.MPU6500_CheckDevice                    0x080033f8   Section        0  mpu6500_drv.o(i.MPU6500_CheckDevice)
    i.MPU6500_Config                         0x08003424   Section        0  mpu6500.o(i.MPU6500_Config)
    i.MPU6500_Init                           0x08003434   Section        0  mpu6500_drv.o(i.MPU6500_Init)
    i.MPU6500_SPI_Read_Reg                   0x08003470   Section        0  mpu6500_spi.o(i.MPU6500_SPI_Read_Reg)
    i.MPU6500_SPI_Write_Reg                  0x080034d0   Section        0  mpu6500_spi.o(i.MPU6500_SPI_Write_Reg)
    i.Maf_Init                               0x08003520   Section        0  maf.o(i.Maf_Init)
    i.Maf_Proc                               0x08003528   Section        0  maf.o(i.Maf_Proc)
    i.Maf_Reset                              0x0800356c   Section        0  maf.o(i.Maf_Reset)
    i.Mec_Decomp                             0x0800359c   Section        0  mec.o(i.Mec_Decomp)
    i.Mec_Init                               0x080035ac   Section        0  mec.o(i.Mec_Init)
    i.Mec_Synthe                             0x080035dc   Section        0  mec.o(i.Mec_Synthe)
    i.Mecanum_Config                         0x080035ec   Section        0  mecanum.o(i.Mecanum_Config)
    i.Mecanum_Decomp                         0x08003616   Section        0  mecanum.o(i.Mecanum_Decomp)
    i.Mecanum_Synthe                         0x080036a4   Section        0  mecanum.o(i.Mecanum_Synthe)
    i.Med_Init                               0x08003718   Section        0  med.o(i.Med_Init)
    i.Med_Proc                               0x08003750   Section        0  med.o(i.Med_Proc)
    i.MemManage_Handler                      0x08003792   Section        0  stm32f4xx_it.o(i.MemManage_Handler)
    i.Motor_Process                          0x08003794   Section        0  can.o(i.Motor_Process)
    i.Motor_Ready                            0x080038d8   Section        0  can.o(i.Motor_Ready)
    i.Motor_Reset                            0x080038e6   Section        0  can.o(i.Motor_Reset)
    i.Msg_Pop                                0x080038ec   Section        0  msg.o(i.Msg_Pop)
    i.Msg_Push                               0x08003962   Section        0  msg.o(i.Msg_Push)
    i.NMI_Handler                            0x080039ac   Section        0  stm32f4xx_it.o(i.NMI_Handler)
    i.NVIC_Config                            0x080039ae   Section        0  stm32util.o(i.NVIC_Config)
    i.NVIC_Init                              0x080039cc   Section        0  misc.o(i.NVIC_Init)
    i.NVIC_PriorityGroupConfig               0x08003a30   Section        0  misc.o(i.NVIC_PriorityGroupConfig)
    i.Odo_Init                               0x08003a44   Section        0  odo.o(i.Odo_Init)
    i.Odo_Proc                               0x08003a64   Section        0  odo.o(i.Odo_Proc)
    i.PID_Calc                               0x08003b98   Section        0  pid.o(i.PID_Calc)
    i.PID_Config                             0x08003cb4   Section        0  pid.o(i.PID_Config)
    i.PID_Reset                              0x08003cbc   Section        0  pid.o(i.PID_Reset)
    i.PWM_Bind                               0x08003ce0   Section        0  stm32util.o(i.PWM_Bind)
    i.Pwm_Config                             0x08005224   Section        0  pwm.o(i.Pwm_Config)
    i.Pwr_Init                               0x08005280   Section        0  pwr.o(i.Pwr_Init)
    i.Pwr_IsOkay                             0x080052d0   Section        0  pwr.o(i.Pwr_IsOkay)
    i.RCC_AHB1PeriphClockCmd                 0x080052e4   Section        0  stm32f4xx_rcc.o(i.RCC_AHB1PeriphClockCmd)
    i.RCC_APB1PeriphClockCmd                 0x080052fc   Section        0  stm32f4xx_rcc.o(i.RCC_APB1PeriphClockCmd)
    i.RCC_APB2PeriphClockCmd                 0x08005314   Section        0  stm32f4xx_rcc.o(i.RCC_APB2PeriphClockCmd)
    i.RCC_GetClocksFreq                      0x0800532c   Section        0  stm32f4xx_rcc.o(i.RCC_GetClocksFreq)
    i.Rcf_Init                               0x080053c0   Section        0  rcf.o(i.Rcf_Init)
    i.Rcf_Proc                               0x080053e8   Section        0  rcf.o(i.Rcf_Proc)
    i.Rci_Init                               0x08005428   Section        0  rci.o(i.Rci_Init)
    i.Rci_PreProc                            0x08005434   Section        0  rci.o(i.Rci_PreProc)
    i.Rci_Proc                               0x08005440   Section        0  rci.o(i.Rci_Proc)
    i.Rci_Sw                                 0x08005454   Section        0  rci.o(i.Rci_Sw)
    i.Rcp_Dec                                0x08005464   Section        0  rcp.o(i.Rcp_Dec)
    i.Rcp_Enc                                0x080054b2   Section        0  rcp.o(i.Rcp_Enc)
    i.Rcp_Init                               0x080054f4   Section        0  rcp.o(i.Rcp_Init)
    i.RcvCallback                            0x0800551a   Section        0  rcv_srv.o(i.RcvCallback)
    i.Rcv_Config                             0x08005520   Section        0  rcv.o(i.Rcv_Config)
    i.Rcv_Proc                               0x080055b4   Section        0  dci.o(i.Rcv_Proc)
    i.Rmp_Calc                               0x080055d4   Section        0  rmp.o(i.Rmp_Calc)
    i.Rmp_Config                             0x080055fe   Section        0  rmp.o(i.Rmp_Config)
    i.Rmp_Reset                              0x08005604   Section        0  rmp.o(i.Rmp_Reset)
    i.SPI_Bind                               0x08005618   Section        0  stm32util.o(i.SPI_Bind)
    i.SPI_Cmd                                0x08005ff0   Section        0  stm32f4xx_spi.o(i.SPI_Cmd)
    i.SPI_Config                             0x08006004   Section        0  stm32util.o(i.SPI_Config)
    i.SPI_Init                               0x080060c4   Section        0  stm32f4xx_spi.o(i.SPI_Init)
    i.SPI_TxRxByte                           0x080060fc   Section        0  stm32util.o(i.SPI_TxRxByte)
    i.SR04Callback                           0x08006124   Section        0  ext_srv.o(i.SR04Callback)
    i.SR04_Bind                              0x08006128   Section        0  sr04.o(i.SR04_Bind)
    i.SR04_Config                            0x08006148   Section        0  sr04.o(i.SR04_Config)
    i.SR04_IRQHandler                        0x08006164   Section        0  sr04.o(i.SR04_IRQHandler)
    SR04_IRQHandler                          0x08006165   Thumb Code    94  sr04.o(i.SR04_IRQHandler)
    i.SYSCFG_EXTILineConfig                  0x080061cc   Section        0  stm32f4xx_syscfg.o(i.SYSCFG_EXTILineConfig)
    i.Sch_Arrange                            0x080061fc   Section        0  sch.o(i.Sch_Arrange)
    i.Sch_Init                               0x0800623c   Section        0  sch.o(i.Sch_Init)
    i.Sch_Proc                               0x08006254   Section        0  sch.o(i.Sch_Proc)
    i.SetSysClock                            0x08006284   Section        0  system_stm32f4xx.o(i.SetSysClock)
    SetSysClock                              0x08006285   Thumb Code   190  system_stm32f4xx.o(i.SetSysClock)
    i.Snd_Init                               0x08006354   Section        0  snd.o(i.Snd_Init)
    i.Snd_Play                               0x08006364   Section        0  snd.o(i.Snd_Play)
    i.Snd_Proc                               0x08006370   Section        0  snd.o(i.Snd_Proc)
    i.Snd_Stop                               0x080063b0   Section        0  snd.o(i.Snd_Stop)
    i.Spi5_Config                            0x080063bc   Section        0  spi5.o(i.Spi5_Config)
    i.Sr04_Proc                              0x08006410   Section        0  srs.o(i.Sr04_Proc)
    i.Srs_Fall                               0x0800645c   Section        0  srs.o(i.Srs_Fall)
    i.Srs_Init                               0x080064fc   Section        0  srs.o(i.Srs_Init)
    i.Srs_Rise                               0x08006510   Section        0  srs.o(i.Srs_Rise)
    i.Srs_Start                              0x0800655c   Section        0  srs.o(i.Srs_Start)
    i.SyncTimCallback                        0x08006594   Section        0  tim_srv.o(i.SyncTimCallback)
    i.SyncTim_Config                         0x08006598   Section        0  tim.o(i.SyncTim_Config)
    i.SyncTim_Start                          0x080065c4   Section        0  tim.o(i.SyncTim_Start)
    i.SysTick_Handler                        0x080065ec   Section        0  port.o(i.SysTick_Handler)
    i.SystemInit                             0x08006618   Section        0  system_stm32f4xx.o(i.SystemInit)
    i.TIM2_IRQHandler                        0x08006674   Section        0  tim.o(i.TIM2_IRQHandler)
    i.TIM6_DAC_IRQHandler                    0x080066a0   Section        0  tim.o(i.TIM6_DAC_IRQHandler)
    i.TIM_ARRPreloadConfig                   0x080066d0   Section        0  stm32f4xx_tim.o(i.TIM_ARRPreloadConfig)
    i.TIM_ClearFlag                          0x080066e4   Section        0  stm32f4xx_tim.o(i.TIM_ClearFlag)
    i.TIM_ClearITPendingBit                  0x080066ea   Section        0  stm32f4xx_tim.o(i.TIM_ClearITPendingBit)
    i.TIM_Cmd                                0x080066f0   Section        0  stm32f4xx_tim.o(i.TIM_Cmd)
    i.TIM_Config                             0x08006704   Section        0  stm32util.o(i.TIM_Config)
    i.TIM_GetITStatus                        0x08006848   Section        0  stm32f4xx_tim.o(i.TIM_GetITStatus)
    i.TIM_ITConfig                           0x08006860   Section        0  stm32f4xx_tim.o(i.TIM_ITConfig)
    i.TIM_OC1Init                            0x08006870   Section        0  stm32f4xx_tim.o(i.TIM_OC1Init)
    i.TIM_OC1PreloadConfig                   0x080068d0   Section        0  stm32f4xx_tim.o(i.TIM_OC1PreloadConfig)
    i.TIM_OC2Init                            0x080068dc   Section        0  stm32f4xx_tim.o(i.TIM_OC2Init)
    i.TIM_OC2PreloadConfig                   0x0800695c   Section        0  stm32f4xx_tim.o(i.TIM_OC2PreloadConfig)
    i.TIM_OC3Init                            0x08006970   Section        0  stm32f4xx_tim.o(i.TIM_OC3Init)
    i.TIM_OC3PreloadConfig                   0x080069ec   Section        0  stm32f4xx_tim.o(i.TIM_OC3PreloadConfig)
    i.TIM_OC4Init                            0x080069f8   Section        0  stm32f4xx_tim.o(i.TIM_OC4Init)
    i.TIM_OC4PreloadConfig                   0x08006a58   Section        0  stm32f4xx_tim.o(i.TIM_OC4PreloadConfig)
    i.TIM_OC_Config                          0x08006a6c   Section        0  stm32util.o(i.TIM_OC_Config)
    i.TIM_TimeBaseInit                       0x08006af0   Section        0  stm32f4xx_tim.o(i.TIM_TimeBaseInit)
    i.TickTimCallback                        0x08006b6c   Section        0  tim_srv.o(i.TickTimCallback)
    i.TickTim_Config                         0x08006b6e   Section        0  tim.o(i.TickTim_Config)
    i.TickTim_Start                          0x08006b9c   Section        0  tim.o(i.TickTim_Start)
    i.Tim_Config                             0x08006bbe   Section        0  tim.o(i.Tim_Config)
    i.Tim_Start                              0x08006bcc   Section        0  tim.o(i.Tim_Start)
    i.TtyRxCallback                          0x08006bda   Section        0  com_srv.o(i.TtyRxCallback)
    i.Tty_Config                             0x08006be0   Section        0  tty.o(i.Tty_Config)
    i.Tty_GetCh                              0x08006c50   Section        0  tty.o(i.Tty_GetCh)
    i.Tty_GetRxFifoFree                      0x08006c94   Section        0  tty.o(i.Tty_GetRxFifoFree)
    i.Tty_GetRxFifoSize                      0x08006ca0   Section        0  tty.o(i.Tty_GetRxFifoSize)
    i.Tty_GetRxFifoUsed                      0x08006cac   Section        0  tty.o(i.Tty_GetRxFifoUsed)
    i.Tty_GetTxFifoFree                      0x08006cb8   Section        0  tty.o(i.Tty_GetTxFifoFree)
    i.Tty_GetTxFifoSize                      0x08006cc4   Section        0  tty.o(i.Tty_GetTxFifoSize)
    i.Tty_GetTxFifoUsed                      0x08006cd0   Section        0  tty.o(i.Tty_GetTxFifoUsed)
    i.Tty_Print                              0x08006cdc   Section        0  tty.o(i.Tty_Print)
    i.Tty_Proc                               0x08006cf8   Section        0  com.o(i.Tty_Proc)
    i.Tty_PutCh                              0x08006d00   Section        0  tty.o(i.Tty_PutCh)
    i.Tty_Read                               0x08006d3c   Section        0  tty.o(i.Tty_Read)
    i.Tty_ReadByte                           0x08006d8c   Section        0  tty.o(i.Tty_ReadByte)
    i.Tty_Write                              0x08006dd4   Section        0  tty.o(i.Tty_Write)
    i.Tty_WriteByte                          0x08006e24   Section        0  tty.o(i.Tty_WriteByte)
    i.USART1_IRQHandler                      0x08006e68   Section        0  rcv.o(i.USART1_IRQHandler)
    i.USART2_IRQHandler                      0x08006edc   Section        0  btm.o(i.USART2_IRQHandler)
    i.USART3_IRQHandler                      0x08006f74   Section        0  dbi.o(i.USART3_IRQHandler)
    i.USART6_IRQHandler                      0x0800700c   Section        0  tty.o(i.USART6_IRQHandler)
    i.USART_Bind                             0x080070a4   Section        0  stm32util.o(i.USART_Bind)
    i.USART_Cmd                              0x08007e84   Section        0  stm32f4xx_usart.o(i.USART_Cmd)
    i.USART_Config                           0x08007e98   Section        0  stm32util.o(i.USART_Config)
    i.USART_DMACmd                           0x08008028   Section        0  stm32f4xx_usart.o(i.USART_DMACmd)
    i.USART_GetITStatus                      0x08008038   Section        0  stm32f4xx_usart.o(i.USART_GetITStatus)
    i.USART_ITConfig                         0x08008076   Section        0  stm32f4xx_usart.o(i.USART_ITConfig)
    i.USART_Init                             0x080080a8   Section        0  stm32f4xx_usart.o(i.USART_Init)
    i.USART_ReceiveData                      0x08008154   Section        0  stm32f4xx_usart.o(i.USART_ReceiveData)
    i.USART_SendData                         0x0800815c   Section        0  stm32f4xx_usart.o(i.USART_SendData)
    i.Upd_Init                               0x08008164   Section        0  upd.o(i.Upd_Init)
    i.Upd_Proc                               0x0800819c   Section        0  upd.o(i.Upd_Proc)
    i.Upl_Init                               0x08008204   Section        0  upl.o(i.Upl_Init)
    i.Upl_Proc                               0x08008218   Section        0  upl.o(i.Upl_Proc)
    i.Upl_PushKylinMsg                       0x08008360   Section        0  upl.o(i.Upl_PushKylinMsg)
    Upl_PushKylinMsg                         0x08008361   Thumb Code   244  upl.o(i.Upl_PushKylinMsg)
    i.Upl_PushPosCalib                       0x08008468   Section        0  upl.o(i.Upl_PushPosCalib)
    Upl_PushPosCalib                         0x08008469   Thumb Code   176  upl.o(i.Upl_PushPosCalib)
    i.Upl_SendMsg                            0x08008538   Section        0  upl.o(i.Upl_SendMsg)
    Upl_SendMsg                              0x08008539   Thumb Code    36  upl.o(i.Upl_SendMsg)
    i.UsageFault_Handler                     0x08008564   Section        0  stm32f4xx_it.o(i.UsageFault_Handler)
    i.Wdg_Feed                               0x08008568   Section        0  wdg.o(i.Wdg_Feed)
    i.Wdg_GetErr                             0x08008578   Section        0  wdg.o(i.Wdg_GetErr)
    i.Wdg_HasErr                             0x08008584   Section        0  wdg.o(i.Wdg_HasErr)
    i.Wdg_HitErr                             0x08008590   Section        0  wdg.o(i.Wdg_HitErr)
    i.Wdg_Init                               0x080085a4   Section        0  wdg.o(i.Wdg_Init)
    i.Wdg_IsOkay                             0x080085d0   Section        0  wdg.o(i.Wdg_IsOkay)
    i.Wdg_Proc                               0x080085ec   Section        0  wdg.o(i.Wdg_Proc)
    i.Wsm_GetLastWs                          0x08008630   Section        0  wsm.o(i.Wsm_GetLastWs)
    i.Wsm_GetWs                              0x0800863c   Section        0  wsm.o(i.Wsm_GetWs)
    i.Wsm_Init                               0x08008648   Section        0  wsm.o(i.Wsm_Init)
    i.Wsm_Proc                               0x08008658   Section        0  wsm.o(i.Wsm_Proc)
    i.ZGyro_Process                          0x08008738   Section        0  can.o(i.ZGyro_Process)
    i.ZGyro_Ready                            0x080087c4   Section        0  can.o(i.ZGyro_Ready)
    i.ZGyro_Reset                            0x080087d2   Section        0  can.o(i.ZGyro_Reset)
    i.__scatterload_copy                     0x080087d8   Section       14  handlers.o(i.__scatterload_copy)
    i.__scatterload_null                     0x080087e6   Section        2  handlers.o(i.__scatterload_null)
    i.__scatterload_zeroinit                 0x080087e8   Section       14  handlers.o(i.__scatterload_zeroinit)
    i.constrain                              0x080087f6   Section        0  fun.o(i.constrain)
    i.getSchTask                             0x08008818   Section        0  sch.o(i.getSchTask)
    getSchTask                               0x08008819   Thumb Code    22  sch.o(i.getSchTask)
    i.isort                                  0x08008834   Section        0  fun.o(i.isort)
    i.main                                   0x08008870   Section        0  main.o(i.main)
    i.malloc                                 0x080088a4   Section        0  malloc.o(i.malloc)
    i.map                                    0x08008910   Section        0  fun.o(i.map)
    i.newSchTask                             0x08008948   Section        0  sch.o(i.newSchTask)
    newSchTask                               0x08008949   Thumb Code    40  sch.o(i.newSchTask)
    i.prvResetNextTaskUnblockTime            0x08008970   Section        0  tasks.o(i.prvResetNextTaskUnblockTime)
    prvResetNextTaskUnblockTime              0x08008971   Thumb Code    26  tasks.o(i.prvResetNextTaskUnblockTime)
    i.sort                                   0x08008990   Section        0  fun.o(i.sort)
    i.uxListRemove                           0x080089bc   Section        0  list.o(i.uxListRemove)
    i.vListInsertEnd                         0x080089e0   Section        0  list.o(i.vListInsertEnd)
    i.vTaskSwitchContext                     0x080089f8   Section        0  tasks.o(i.vTaskSwitchContext)
    i.xTaskIncrementTick                     0x08008a54   Section        0  tasks.o(i.xTaskIncrementTick)
    .constdata                               0x08008b1c   Section      486  cfg.o(.constdata)
    .constdata                               0x08008d04   Section       88  wdg.o(.constdata)
    CNT                                      0x08008d04   Data          88  wdg.o(.constdata)
    .constdata                               0x08008d5c   Section      512  crc16.o(.constdata)
    CRC16Table                               0x08008d5c   Data         512  crc16.o(.constdata)
    .constdata                               0x08008f5c   Section        4  msg.o(.constdata)
    .constdata                               0x08008f60   Section        4  msg.o(.constdata)
    .constdata                               0x08008f64   Section        4  msg.o(.constdata)
    .constdata                               0x08008f68   Section        4  msg.o(.constdata)
    .constdata                               0x08008f6c   Section        4  msg.o(.constdata)
    .constdata                               0x08008f70   Section        4  msg.o(.constdata)
    .constdata                               0x08008f74   Section        4  msg.o(.constdata)
    .constdata                               0x08008f78   Section        4  msg.o(.constdata)
    .constdata                               0x08008f7c   Section       56  beep.o(.constdata)
    .constdata                               0x08008fb4   Section       16  mpu6500_drv.o(.constdata)
    .constdata                               0x08008fc4   Section       32  sr04.o(.constdata)
    .constdata                               0x08008fe4   Section       52  tty.o(.constdata)
    .data                                    0x20000000   Section       12  sch.o(.data)
    tick                                     0x20000000   Data           4  sch.o(.data)
    first                                    0x20000004   Data           4  sch.o(.data)
    last                                     0x20000008   Data           4  sch.o(.data)
    .data                                    0x2000000c   Section        8  cal.o(.data)
    calFlag                                  0x2000000c   Data           4  cal.o(.data)
    gm_startup_delay_cnt                     0x20000010   Data           4  cal.o(.data)
    .data                                    0x20000014   Section      243  cfg.o(.data)
    .data                                    0x20000108   Section       20  clk.o(.data)
    us_tick                                  0x20000108   Data           4  clk.o(.data)
    us_temp                                  0x2000010c   Data           4  clk.o(.data)
    ms_tick                                  0x20000110   Data           4  clk.o(.data)
    ms_temp                                  0x20000114   Data           4  clk.o(.data)
    sc_tick                                  0x20000118   Data           4  clk.o(.data)
    .data                                    0x2000011c   Section        4  ini.o(.data)
    iniFlag                                  0x2000011c   Data           4  ini.o(.data)
    .data                                    0x20000120   Section        8  ios.o(.data)
    .data                                    0x20000128   Section        4  odo.o(.data)
    odo_gp_c                                 0x20000128   Data           4  odo.o(.data)
    .data                                    0x2000012c   Section        4  pwr.o(.data)
    pwrOLFlag                                0x2000012c   Data           4  pwr.o(.data)
    .data                                    0x20000130   Section       12  snd.o(.data)
    state                                    0x20000130   Data           1  snd.o(.data)
    idx                                      0x20000134   Data           4  snd.o(.data)
    lastSingTick                             0x20000138   Data           4  snd.o(.data)
    .data                                    0x2000013c   Section        4  upl.o(.data)
    msgType                                  0x2000013c   Data           4  upl.o(.data)
    .data                                    0x20000140   Section       92  wdg.o(.data)
    err                                      0x20000140   Data           4  wdg.o(.data)
    cnt                                      0x20000144   Data          88  wdg.o(.data)
    .data                                    0x2000019c   Section        2  wsm.o(.data)
    workingState                             0x2000019c   Data           1  wsm.o(.data)
    lastWorkingState                         0x2000019d   Data           1  wsm.o(.data)
    .data                                    0x2000019e   Section       16  stm32f4xx_rcc.o(.data)
    APBAHBPrescTable                         0x2000019e   Data          16  stm32f4xx_rcc.o(.data)
    .data                                    0x200001b0   Section       60  tasks.o(.data)
    uxDeletedTasksWaitingCleanUp             0x200001b4   Data           4  tasks.o(.data)
    uxCurrentNumberOfTasks                   0x200001b8   Data           4  tasks.o(.data)
    xTickCount                               0x200001bc   Data           4  tasks.o(.data)
    uxTopReadyPriority                       0x200001c0   Data           4  tasks.o(.data)
    xSchedulerRunning                        0x200001c4   Data           4  tasks.o(.data)
    uxPendedTicks                            0x200001c8   Data           4  tasks.o(.data)
    xYieldPending                            0x200001cc   Data           4  tasks.o(.data)
    xNumOfOverflows                          0x200001d0   Data           4  tasks.o(.data)
    uxTaskNumber                             0x200001d4   Data           4  tasks.o(.data)
    xNextTaskUnblockTime                     0x200001d8   Data           4  tasks.o(.data)
    xIdleTaskHandle                          0x200001dc   Data           4  tasks.o(.data)
    uxSchedulerSuspended                     0x200001e0   Data           4  tasks.o(.data)
    pxDelayedTaskList                        0x200001e4   Data           4  tasks.o(.data)
    pxOverflowDelayedTaskList                0x200001e8   Data           4  tasks.o(.data)
    .data                                    0x200001ec   Section        4  mvars.o(.data)
    .data                                    0x200001f0   Section        4  mvars.o(.data)
    .bss                                     0x200001f4   Section       28  cal.o(.bss)
    maf                                      0x200001f4   Data          16  cal.o(.bss)
    buf                                      0x20000204   Data          12  cal.o(.bss)
    .bss                                     0x20000210   Section      764  can.o(.bss)
    .bss                                     0x2000050c   Section       76  cmd.o(.bss)
    .bss                                     0x20000558   Section      568  ctl.o(.bss)
    .bss                                     0x20000790   Section       22  dci.o(.bss)
    .bss                                     0x200007a8   Section      632  dnl.o(.bss)
    kylinMsg                                 0x200007a8   Data          28  dnl.o(.bss)
    vrc                                      0x200007c4   Data          10  dnl.o(.bss)
    vhc                                      0x200007ce   Data          16  dnl.o(.bss)
    vdbus                                    0x200007de   Data          22  dnl.o(.bss)
    cbus                                     0x200007f4   Data          24  dnl.o(.bss)
    buf                                      0x2000080c   Data         512  dnl.o(.bss)
    fifo                                     0x20000a0c   Data          20  dnl.o(.bss)
    .bss                                     0x20000a20   Section      240  hci.o(.bss)
    hcf                                      0x20000a20   Data          16  hci.o(.bss)
    maf                                      0x20000a30   Data          64  hci.o(.bss)
    buf                                      0x20000a70   Data         160  hci.o(.bss)
    .bss                                     0x20000b10   Section       20  mec.o(.bss)
    mecanum                                  0x20000b10   Data          20  mec.o(.bss)
    .bss                                     0x20000b24   Section      100  odo.o(.bss)
    .bss                                     0x20000b88   Section      672  pwr.o(.bss)
    maf                                      0x20000b88   Data         192  pwr.o(.bss)
    buf                                      0x20000c48   Data         480  pwr.o(.bss)
    .bss                                     0x20000e28   Section       16  rci.o(.bss)
    rcf                                      0x20000e28   Data          16  rci.o(.bss)
    .bss                                     0x20000e38   Section      368  srs.o(.bss)
    .bss                                     0x20000fa8   Section      604  upl.o(.bss)
    buf                                      0x20000fa8   Data         512  upl.o(.bss)
    fifo                                     0x200011a8   Data          20  upl.o(.bss)
    kylinMsg                                 0x200011bc   Data          28  upl.o(.bss)
    sr04sMsg                                 0x200011d8   Data          12  upl.o(.bss)
    zgyroMsg                                 0x200011e4   Data          10  upl.o(.bss)
    posCalibMsg                              0x200011ee   Data          12  upl.o(.bss)
    virtualRC                                0x200011fa   Data          10  upl.o(.bss)
    .bss                                     0x20001204   Section      552  btm.o(.bss)
    rx_fifo                                  0x20001204   Data          20  btm.o(.bss)
    tx_fifo                                  0x20001218   Data          20  btm.o(.bss)
    rx_buf                                   0x2000122c   Data         256  btm.o(.bss)
    tx_buf                                   0x2000132c   Data         256  btm.o(.bss)
    .bss                                     0x2000142c   Section      552  dbi.o(.bss)
    rx_fifo                                  0x2000142c   Data          20  dbi.o(.bss)
    tx_fifo                                  0x20001440   Data          20  dbi.o(.bss)
    rx_buf                                   0x20001454   Data         256  dbi.o(.bss)
    tx_buf                                   0x20001554   Data         256  dbi.o(.bss)
    .bss                                     0x20001654   Section       72  rcv.o(.bss)
    buf                                      0x20001654   Data          72  rcv.o(.bss)
    .bss                                     0x2000169c   Section       64  stm32util.o(.bss)
    .bss                                     0x200016dc   Section      552  tty.o(.bss)
    rx_fifo                                  0x200016dc   Data          20  tty.o(.bss)
    tx_fifo                                  0x200016f0   Data          20  tty.o(.bss)
    rx_buf                                   0x20001704   Data         256  tty.o(.bss)
    tx_buf                                   0x20001804   Data         256  tty.o(.bss)
    .bss                                     0x20001904   Section      200  tasks.o(.bss)
    pxReadyTasksLists                        0x20001904   Data         100  tasks.o(.bss)
    xDelayedTaskList1                        0x20001968   Data          20  tasks.o(.bss)
    xDelayedTaskList2                        0x2000197c   Data          20  tasks.o(.bss)
    xPendingReadyList                        0x20001990   Data          20  tasks.o(.bss)
    xTasksWaitingTermination                 0x200019a4   Data          20  tasks.o(.bss)
    xSuspendedTaskList                       0x200019b8   Data          20  tasks.o(.bss)
    HEAP                                     0x200019d0   Section     4096  startup_stm32f427xx.o(HEAP)
    STACK                                    0x200029d0   Section     1024  startup_stm32f427xx.o(STACK)

    Global Symbols

    Symbol Name                              Value     Ov Type        Size  Object(Section)

    BuildAttributes$$THM_ISAv4$E$P$D$K$B$S$7EM$VFPi3$EXTD16$VFPS$VFMA$PE$A:L22UL41UL21$X:L11$S22US41US21$IEEE1$IW$USESV6$~STKCKD$USESV7$~SHL$OTIME$ROPI$IEEEX$EBA8$MICROLIB$REQ8$PRES8$EABIv2 0x00000000   Number         0  anon$$obj.o ABSOLUTE
    __ARM_use_no_argv                        0x00000000   Number         0  main.o ABSOLUTE
    __cpp_initialize__aeabi_                  - Undefined Weak Reference
    __cxa_finalize                            - Undefined Weak Reference
    _clock_init                               - Undefined Weak Reference
    _microlib_exit                            - Undefined Weak Reference
    __Vectors_Size                           0x000001ac   Number         0  startup_stm32f427xx.o ABSOLUTE
    __Vectors                                0x08000000   Data           4  startup_stm32f427xx.o(RESET)
    __Vectors_End                            0x080001ac   Data           0  startup_stm32f427xx.o(RESET)
    __main                                   0x080001ad   Thumb Code     0  entry.o(.ARM.Collect$$$$00000000)
    _main_stk                                0x080001ad   Thumb Code     0  entry2.o(.ARM.Collect$$$$00000001)
    _main_scatterload                        0x080001b1   Thumb Code     0  entry5.o(.ARM.Collect$$$$00000004)
    __main_after_scatterload                 0x080001b5   Thumb Code     0  entry5.o(.ARM.Collect$$$$00000004)
    _main_clock                              0x080001b5   Thumb Code     0  entry7b.o(.ARM.Collect$$$$00000008)
    _main_cpp_init                           0x080001b5   Thumb Code     0  entry8b.o(.ARM.Collect$$$$0000000A)
    _main_init                               0x080001b5   Thumb Code     0  entry9a.o(.ARM.Collect$$$$0000000B)
    __rt_final_cpp                           0x080001bd   Thumb Code     0  entry10a.o(.ARM.Collect$$$$0000000D)
    __rt_final_exit                          0x080001bd   Thumb Code     0  entry11a.o(.ARM.Collect$$$$0000000F)
    SVC_Handler                              0x080001c1   Thumb Code    28  port.o(.emb_text)
    __asm___6_port_c_39a90d8d__prvStartFirstTask 0x080001e1   Thumb Code    28  port.o(.emb_text)
    __asm___6_port_c_39a90d8d__prvEnableVFP  0x08000201   Thumb Code    16  port.o(.emb_text)
    PendSV_Handler                           0x08000215   Thumb Code    88  port.o(.emb_text)
    vPortGetIPSR                             0x08000271   Thumb Code     6  port.o(.emb_text)
    Reset_Handler                            0x08000279   Thumb Code     8  startup_stm32f427xx.o(.text)
    ADC_IRQHandler                           0x08000293   Thumb Code     0  startup_stm32f427xx.o(.text)
    CAN1_RX1_IRQHandler                      0x08000293   Thumb Code     0  startup_stm32f427xx.o(.text)
    CAN1_SCE_IRQHandler                      0x08000293   Thumb Code     0  startup_stm32f427xx.o(.text)
    CAN2_RX1_IRQHandler                      0x08000293   Thumb Code     0  startup_stm32f427xx.o(.text)
    CAN2_SCE_IRQHandler                      0x08000293   Thumb Code     0  startup_stm32f427xx.o(.text)
    DCMI_IRQHandler                          0x08000293   Thumb Code     0  startup_stm32f427xx.o(.text)
    DMA1_Stream0_IRQHandler                  0x08000293   Thumb Code     0  startup_stm32f427xx.o(.text)
    DMA1_Stream1_IRQHandler                  0x08000293   Thumb Code     0  startup_stm32f427xx.o(.text)
    DMA1_Stream2_IRQHandler                  0x08000293   Thumb Code     0  startup_stm32f427xx.o(.text)
    DMA1_Stream3_IRQHandler                  0x08000293   Thumb Code     0  startup_stm32f427xx.o(.text)
    DMA1_Stream4_IRQHandler                  0x08000293   Thumb Code     0  startup_stm32f427xx.o(.text)
    DMA1_Stream5_IRQHandler                  0x08000293   Thumb Code     0  startup_stm32f427xx.o(.text)
    DMA1_Stream6_IRQHandler                  0x08000293   Thumb Code     0  startup_stm32f427xx.o(.text)
    DMA1_Stream7_IRQHandler                  0x08000293   Thumb Code     0  startup_stm32f427xx.o(.text)
    DMA2D_IRQHandler                         0x08000293   Thumb Code     0  startup_stm32f427xx.o(.text)
    DMA2_Stream0_IRQHandler                  0x08000293   Thumb Code     0  startup_stm32f427xx.o(.text)
    DMA2_Stream1_IRQHandler                  0x08000293   Thumb Code     0  startup_stm32f427xx.o(.text)
    DMA2_Stream2_IRQHandler                  0x08000293   Thumb Code     0  startup_stm32f427xx.o(.text)
    DMA2_Stream3_IRQHandler                  0x08000293   Thumb Code     0  startup_stm32f427xx.o(.text)
    DMA2_Stream4_IRQHandler                  0x08000293   Thumb Code     0  startup_stm32f427xx.o(.text)
    DMA2_Stream5_IRQHandler                  0x08000293   Thumb Code     0  startup_stm32f427xx.o(.text)
    DMA2_Stream6_IRQHandler                  0x08000293   Thumb Code     0  startup_stm32f427xx.o(.text)
    DMA2_Stream7_IRQHandler                  0x08000293   Thumb Code     0  startup_stm32f427xx.o(.text)
    ETH_IRQHandler                           0x08000293   Thumb Code     0  startup_stm32f427xx.o(.text)
    ETH_WKUP_IRQHandler                      0x08000293   Thumb Code     0  startup_stm32f427xx.o(.text)
    FLASH_IRQHandler                         0x08000293   Thumb Code     0  startup_stm32f427xx.o(.text)
    FMC_IRQHandler                           0x08000293   Thumb Code     0  startup_stm32f427xx.o(.text)
    FPU_IRQHandler                           0x08000293   Thumb Code     0  startup_stm32f427xx.o(.text)
    HASH_RNG_IRQHandler                      0x08000293   Thumb Code     0  startup_stm32f427xx.o(.text)
    I2C1_ER_IRQHandler                       0x08000293   Thumb Code     0  startup_stm32f427xx.o(.text)
    I2C1_EV_IRQHandler                       0x08000293   Thumb Code     0  startup_stm32f427xx.o(.text)
    I2C2_ER_IRQHandler                       0x08000293   Thumb Code     0  startup_stm32f427xx.o(.text)
    I2C2_EV_IRQHandler                       0x08000293   Thumb Code     0  startup_stm32f427xx.o(.text)
    I2C3_ER_IRQHandler                       0x08000293   Thumb Code     0  startup_stm32f427xx.o(.text)
    I2C3_EV_IRQHandler                       0x08000293   Thumb Code     0  startup_stm32f427xx.o(.text)
    OTG_FS_IRQHandler                        0x08000293   Thumb Code     0  startup_stm32f427xx.o(.text)
    OTG_FS_WKUP_IRQHandler                   0x08000293   Thumb Code     0  startup_stm32f427xx.o(.text)
    OTG_HS_EP1_IN_IRQHandler                 0x08000293   Thumb Code     0  startup_stm32f427xx.o(.text)
    OTG_HS_EP1_OUT_IRQHandler                0x08000293   Thumb Code     0  startup_stm32f427xx.o(.text)
    OTG_HS_IRQHandler                        0x08000293   Thumb Code     0  startup_stm32f427xx.o(.text)
    OTG_HS_WKUP_IRQHandler                   0x08000293   Thumb Code     0  startup_stm32f427xx.o(.text)
    PVD_IRQHandler                           0x08000293   Thumb Code     0  startup_stm32f427xx.o(.text)
    RCC_IRQHandler                           0x08000293   Thumb Code     0  startup_stm32f427xx.o(.text)
    RTC_Alarm_IRQHandler                     0x08000293   Thumb Code     0  startup_stm32f427xx.o(.text)
    RTC_WKUP_IRQHandler                      0x08000293   Thumb Code     0  startup_stm32f427xx.o(.text)
    SAI1_IRQHandler                          0x08000293   Thumb Code     0  startup_stm32f427xx.o(.text)
    SDIO_IRQHandler                          0x08000293   Thumb Code     0  startup_stm32f427xx.o(.text)
    SPI1_IRQHandler                          0x08000293   Thumb Code     0  startup_stm32f427xx.o(.text)
    SPI2_IRQHandler                          0x08000293   Thumb Code     0  startup_stm32f427xx.o(.text)
    SPI3_IRQHandler                          0x08000293   Thumb Code     0  startup_stm32f427xx.o(.text)
    SPI4_IRQHandler                          0x08000293   Thumb Code     0  startup_stm32f427xx.o(.text)
    SPI5_IRQHandler                          0x08000293   Thumb Code     0  startup_stm32f427xx.o(.text)
    SPI6_IRQHandler                          0x08000293   Thumb Code     0  startup_stm32f427xx.o(.text)
    TAMP_STAMP_IRQHandler                    0x08000293   Thumb Code     0  startup_stm32f427xx.o(.text)
    TIM1_BRK_TIM9_IRQHandler                 0x08000293   Thumb Code     0  startup_stm32f427xx.o(.text)
    TIM1_CC_IRQHandler                       0x08000293   Thumb Code     0  startup_stm32f427xx.o(.text)
    TIM1_TRG_COM_TIM11_IRQHandler            0x08000293   Thumb Code     0  startup_stm32f427xx.o(.text)
    TIM1_UP_TIM10_IRQHandler                 0x08000293   Thumb Code     0  startup_stm32f427xx.o(.text)
    TIM3_IRQHandler                          0x08000293   Thumb Code     0  startup_stm32f427xx.o(.text)
    TIM4_IRQHandler                          0x08000293   Thumb Code     0  startup_stm32f427xx.o(.text)
    TIM5_IRQHandler                          0x08000293   Thumb Code     0  startup_stm32f427xx.o(.text)
    TIM7_IRQHandler                          0x08000293   Thumb Code     0  startup_stm32f427xx.o(.text)
    TIM8_BRK_TIM12_IRQHandler                0x08000293   Thumb Code     0  startup_stm32f427xx.o(.text)
    TIM8_CC_IRQHandler                       0x08000293   Thumb Code     0  startup_stm32f427xx.o(.text)
    TIM8_TRG_COM_TIM14_IRQHandler            0x08000293   Thumb Code     0  startup_stm32f427xx.o(.text)
    TIM8_UP_TIM13_IRQHandler                 0x08000293   Thumb Code     0  startup_stm32f427xx.o(.text)
    UART4_IRQHandler                         0x08000293   Thumb Code     0  startup_stm32f427xx.o(.text)
    UART5_IRQHandler                         0x08000293   Thumb Code     0  startup_stm32f427xx.o(.text)
    UART7_IRQHandler                         0x08000293   Thumb Code     0  startup_stm32f427xx.o(.text)
    UART8_IRQHandler                         0x08000293   Thumb Code     0  startup_stm32f427xx.o(.text)
    WWDG_IRQHandler                          0x08000293   Thumb Code     0  startup_stm32f427xx.o(.text)
    __aeabi_memcpy                           0x0800029d   Thumb Code    36  memcpya.o(.text)
    __aeabi_memcpy4                          0x0800029d   Thumb Code     0  memcpya.o(.text)
    __aeabi_memcpy8                          0x0800029d   Thumb Code     0  memcpya.o(.text)
    __aeabi_memset                           0x080002c1   Thumb Code    14  memseta.o(.text)
    __aeabi_memset4                          0x080002c1   Thumb Code     0  memseta.o(.text)
    __aeabi_memset8                          0x080002c1   Thumb Code     0  memseta.o(.text)
    __aeabi_memclr                           0x080002cf   Thumb Code     4  memseta.o(.text)
    __aeabi_memclr4                          0x080002cf   Thumb Code     0  memseta.o(.text)
    __aeabi_memclr8                          0x080002cf   Thumb Code     0  memseta.o(.text)
    _memset$wrapper                          0x080002d3   Thumb Code    18  memseta.o(.text)
    strlen                                   0x080002e5   Thumb Code    14  strlen.o(.text)
    __scatterload                            0x080002f5   Thumb Code    28  init.o(.text)
    __scatterload_rt2                        0x080002f5   Thumb Code     0  init.o(.text)
    __decompress                             0x08000319   Thumb Code     0  __dczerorl2.o(.text)
    __decompress1                            0x08000319   Thumb Code    86  __dczerorl2.o(.text)
    Act_Init                                 0x08000371   Thumb Code    36  act.o(i.Act_Init)
    Act_Proc                                 0x0800039d   Thumb Code    70  act.o(i.Act_Proc)
    App_Init                                 0x080003ed   Thumb Code    86  app.o(i.App_Init)
    App_Proc                                 0x08000443   Thumb Code    22  app.o(i.App_Proc)
    Beep_Config                              0x08000459   Thumb Code    44  beep.o(i.Beep_Config)
    Beep_Sing                                0x0800048d   Thumb Code    28  beep.o(i.Beep_Sing)
    Beep_SingStartupMusic                    0x080004b1   Thumb Code    14  beep.o(i.Beep_SingStartupMusic)
    Bsp_Config                               0x080004c5   Thumb Code    88  bsp.o(i.Bsp_Config)
    BtmRxCallback                            0x08000521   Thumb Code     4  com_srv.o(i.BtmRxCallback)
    Btm_Config                               0x08000525   Thumb Code    94  btm.o(i.Btm_Config)
    Btm_Proc                                 0x08000595   Thumb Code     6  com.o(i.Btm_Proc)
    Btm_PutCh                                0x0800059d   Thumb Code    50  btm.o(i.Btm_PutCh)
    Btn_Config                               0x080005d9   Thumb Code     6  btn.o(i.Btn_Config)
    BusFault_Handler                         0x080005e5   Thumb Code     2  stm32f4xx_it.o(i.BusFault_Handler)
    CAN1_RX0_IRQHandler                      0x080005e9   Thumb Code    58  can1.o(i.CAN1_RX0_IRQHandler)
    CAN1_TX_IRQHandler                       0x0800062d   Thumb Code    30  can1.o(i.CAN1_TX_IRQHandler)
    CAN2_RX0_IRQHandler                      0x08000651   Thumb Code    58  can2.o(i.CAN2_RX0_IRQHandler)
    CAN2_TX_IRQHandler                       0x08000695   Thumb Code    30  can2.o(i.CAN2_TX_IRQHandler)
    CAN_ClearFlag                            0x080006b9   Thumb Code    44  stm32f4xx_can.o(i.CAN_ClearFlag)
    CAN_ClearITPendingBit                    0x080006e9   Thumb Code   116  stm32f4xx_can.o(i.CAN_ClearITPendingBit)
    CAN_Config                               0x08000761   Thumb Code    98  stm32util.o(i.CAN_Config)
    CAN_FilterInit                           0x080007cd   Thumb Code   194  stm32f4xx_can.o(i.CAN_FilterInit)
    CAN_Filter_Config                        0x08000899   Thumb Code    54  stm32util.o(i.CAN_Filter_Config)
    CAN_GetITStatus                          0x080008d1   Thumb Code   162  stm32f4xx_can.o(i.CAN_GetITStatus)
    CAN_ITConfig                             0x08000979   Thumb Code    16  stm32f4xx_can.o(i.CAN_ITConfig)
    CAN_Init                                 0x08000989   Thumb Code   232  stm32f4xx_can.o(i.CAN_Init)
    CAN_Receive                              0x08000a71   Thumb Code   144  stm32f4xx_can.o(i.CAN_Receive)
    CAN_Transmit                             0x08000b01   Thumb Code   164  stm32f4xx_can.o(i.CAN_Transmit)
    CBUS_Init                                0x08000ba5   Thumb Code     6  cbus.o(i.CBUS_Init)
    CM_Cmd                                   0x08000bab   Thumb Code    78  motor.o(i.CM_Cmd)
    CRC16Append                              0x08000bf9   Thumb Code    34  crc16.o(i.CRC16Append)
    CRC16Calc                                0x08000c1d   Thumb Code    44  crc16.o(i.CRC16Calc)
    CRC16Check                               0x08000c4d   Thumb Code    48  crc16.o(i.CRC16Check)
    Cal_Init                                 0x08000c7d   Thumb Code    20  cal.o(i.Cal_Init)
    Cal_IsDone                               0x08000c99   Thumb Code     4  cal.o(i.Cal_IsDone)
    Cal_Proc                                 0x08000c9d   Thumb Code     4  cal.o(i.Cal_Proc)
    Cal_SetFlag                              0x08000e01   Thumb Code    10  cal.o(i.Cal_SetFlag)
    Can1RxCallback                           0x08000e99   Thumb Code     4  can_srv.o(i.Can1RxCallback)
    Can1_Config                              0x08000e9d   Thumb Code   104  can1.o(i.Can1_Config)
    Can2RxCallback                           0x08000f0d   Thumb Code     4  can_srv.o(i.Can2RxCallback)
    Can2_Config                              0x08000f11   Thumb Code   106  can2.o(i.Can2_Config)
    Can_Init                                 0x08000f85   Thumb Code    40  can.o(i.Can_Init)
    Can_Proc                                 0x08000fb1   Thumb Code   168  can.o(i.Can_Proc)
    Cci_Proc                                 0x08001065   Thumb Code    18  cci.o(i.Cci_Proc)
    Cfg_GetFlag                              0x08001079   Thumb Code     8  cfg.o(i.Cfg_GetFlag)
    Cfg_Init                                 0x08001085   Thumb Code   252  cfg.o(i.Cfg_Init)
    Cfg_IsSynced                             0x08001189   Thumb Code    14  cfg.o(i.Cfg_IsSynced)
    Cfg_Load                                 0x0800119d   Thumb Code     6  cfg.o(i.Cfg_Load)
    Cfg_Proc                                 0x080011a5   Thumb Code    22  cfg.o(i.Cfg_Proc)
    Cfg_Save                                 0x080011c1   Thumb Code     6  cfg.o(i.Cfg_Save)
    Clk_GetMsTick                            0x08001271   Thumb Code    16  clk.o(i.Clk_GetMsTick)
    Clk_GetUsTick                            0x08001281   Thumb Code     8  clk.o(i.Clk_GetUsTick)
    Clk_Init                                 0x08001289   Thumb Code    16  clk.o(i.Clk_Init)
    Cmd_Init                                 0x0800129d   Thumb Code     8  cmd.o(i.Cmd_Init)
    Cmd_Proc                                 0x080012a9   Thumb Code   308  cmd.o(i.Cmd_Proc)
    Com_Init                                 0x080013e5   Thumb Code    14  com.o(i.Com_Init)
    Ctl_Init                                 0x08001459   Thumb Code    98  ctl.o(i.Ctl_Init)
    Ctl_Proc                                 0x080014c5   Thumb Code    34  ctl.o(i.Ctl_Proc)
    DBUS_Dec                                 0x08001559   Thumb Code    24  dbus.o(i.DBUS_Dec)
    DBUS_Init                                0x08001571   Thumb Code    20  dbus.o(i.DBUS_Init)
    DMA_Cmd                                  0x08001585   Thumb Code    20  stm32f4xx_dma.o(i.DMA_Cmd)
    DMA_Config                               0x08001599   Thumb Code   100  stm32util.o(i.DMA_Config)
    DMA_DoubleBufferModeCmd                  0x08001605   Thumb Code    20  stm32f4xx_dma.o(i.DMA_DoubleBufferModeCmd)
    DMA_DoubleBufferModeConfig               0x08001619   Thumb Code    22  stm32f4xx_dma.o(i.DMA_DoubleBufferModeConfig)
    DMA_GetCurrDataCounter                   0x0800162f   Thumb Code     6  stm32f4xx_dma.o(i.DMA_GetCurrDataCounter)
    DMA_GetCurrentMemoryTarget               0x08001635   Thumb Code    14  stm32f4xx_dma.o(i.DMA_GetCurrentMemoryTarget)
    DMA_Init                                 0x08001645   Thumb Code    80  stm32f4xx_dma.o(i.DMA_Init)
    DbiRxCallback                            0x08001699   Thumb Code     4  com_srv.o(i.DbiRxCallback)
    Dbi_Config                               0x0800169d   Thumb Code    94  dbi.o(i.Dbi_Config)
    Dbi_GetCh                                0x0800170d   Thumb Code    60  dbi.o(i.Dbi_GetCh)
    Dbi_Proc                                 0x08001751   Thumb Code     6  com.o(i.Dbi_Proc)
    Dbi_PutCh                                0x08001759   Thumb Code    50  dbi.o(i.Dbi_PutCh)
    Dci_Init                                 0x08001795   Thumb Code    20  dci.o(i.Dci_Init)
    Dci_Proc                                 0x080017ad   Thumb Code    72  dci.o(i.Dci_Proc)
    DebugMon_Handler                         0x080017f5   Thumb Code     2  stm32f4xx_it.o(i.DebugMon_Handler)
    Delay_Ms                                 0x080017f7   Thumb Code    24  delay.o(i.Delay_Ms)
    Dnl_Init                                 0x08001811   Thumb Code    28  dnl.o(i.Dnl_Init)
    Dnl_Proc                                 0x08001831   Thumb Code   328  dnl.o(i.Dnl_Proc)
    EXTI0_IRQHandler                         0x080019a9   Thumb Code    42  stm32util.o(i.EXTI0_IRQHandler)
    EXTI15_10_IRQHandler                     0x080019d9   Thumb Code   206  stm32util.o(i.EXTI15_10_IRQHandler)
    EXTI1_IRQHandler                         0x08001aad   Thumb Code    42  stm32util.o(i.EXTI1_IRQHandler)
    EXTI2_IRQHandler                         0x08001add   Thumb Code    42  stm32util.o(i.EXTI2_IRQHandler)
    EXTI3_IRQHandler                         0x08001b0d   Thumb Code    42  stm32util.o(i.EXTI3_IRQHandler)
    EXTI4_IRQHandler                         0x08001b3d   Thumb Code    42  stm32util.o(i.EXTI4_IRQHandler)
    EXTI9_5_IRQHandler                       0x08001b6d   Thumb Code   162  stm32util.o(i.EXTI9_5_IRQHandler)
    EXTI_Bind                                0x08001c15   Thumb Code   280  stm32util.o(i.EXTI_Bind)
    EXTI_ClearFlag                           0x08001d31   Thumb Code     6  stm32f4xx_exti.o(i.EXTI_ClearFlag)
    EXTI_ClearITPendingBit                   0x08001d3d   Thumb Code     6  stm32f4xx_exti.o(i.EXTI_ClearITPendingBit)
    EXTI_Config                              0x08001d49   Thumb Code    40  stm32util.o(i.EXTI_Config)
    EXTI_GetITStatus                         0x08001d71   Thumb Code    16  stm32f4xx_exti.o(i.EXTI_GetITStatus)
    EXTI_Init                                0x08001d85   Thumb Code   108  stm32f4xx_exti.o(i.EXTI_Init)
    EXTI_SetHandler                          0x08001df5   Thumb Code    12  stm32util.o(i.EXTI_SetHandler)
    Ekf_Init                                 0x08001e05   Thumb Code     8  ekf.o(i.Ekf_Init)
    Ekf_Proc                                 0x08001e0d   Thumb Code    74  ekf.o(i.Ekf_Proc)
    Ekf_Reset                                0x08001e59   Thumb Code    22  ekf.o(i.Ekf_Reset)
    FIFO_Flush                               0x08001e75   Thumb Code    22  fifo.o(i.FIFO_Flush)
    FIFO_GetFree                             0x08001e8b   Thumb Code     8  fifo.o(i.FIFO_GetFree)
    FIFO_GetSize                             0x08001e93   Thumb Code     4  fifo.o(i.FIFO_GetSize)
    FIFO_GetUsed                             0x08001e97   Thumb Code     4  fifo.o(i.FIFO_GetUsed)
    FIFO_Init                                0x08001e9b   Thumb Code     8  fifo.o(i.FIFO_Init)
    FIFO_IsEmpty                             0x08001ea3   Thumb Code    12  fifo.o(i.FIFO_IsEmpty)
    FIFO_IsFull                              0x08001eaf   Thumb Code    16  fifo.o(i.FIFO_IsFull)
    FIFO_Peek                                0x08001ebf   Thumb Code    40  fifo.o(i.FIFO_Peek)
    FIFO_Pop                                 0x08001ee7   Thumb Code    52  fifo.o(i.FIFO_Pop)
    FIFO_Push                                0x08001f1b   Thumb Code    58  fifo.o(i.FIFO_Push)
    FLASH_DataCacheCmd                       0x08001f55   Thumb Code    22  stm32f4xx_flash.o(i.FLASH_DataCacheCmd)
    FLASH_EraseSector                        0x08001f71   Thumb Code   104  stm32f4xx_flash.o(i.FLASH_EraseSector)
    FLASH_GetStatus                          0x08001fdd   Thumb Code    56  stm32f4xx_flash.o(i.FLASH_GetStatus)
    FLASH_Lock                               0x08002019   Thumb Code    12  stm32f4xx_flash.o(i.FLASH_Lock)
    FLASH_ProgramByte                        0x08002029   Thumb Code    52  stm32f4xx_flash.o(i.FLASH_ProgramByte)
    FLASH_Unlock                             0x08002061   Thumb Code    22  stm32f4xx_flash.o(i.FLASH_Unlock)
    FLASH_WaitForLastOperation               0x08002085   Thumb Code    30  stm32f4xx_flash.o(i.FLASH_WaitForLastOperation)
    FS_Cpy                                   0x080020a3   Thumb Code     4  sys.o(i.FS_Cpy)
    FS_Det                                   0x080020a7   Thumb Code     4  sys.o(i.FS_Det)
    Flag_Cpy                                 0x080020ab   Thumb Code    38  fun.o(i.Flag_Cpy)
    Flag_Det                                 0x080020d1   Thumb Code    14  fun.o(i.Flag_Det)
    Flag_Get                                 0x080020df   Thumb Code     6  fun.o(i.Flag_Get)
    Flag_Set                                 0x080020e5   Thumb Code     8  fun.o(i.Flag_Set)
    Flash_Read                               0x0800218d   Thumb Code    22  flash.o(i.Flash_Read)
    Flash_Write                              0x080021a5   Thumb Code   122  flash.o(i.Flash_Write)
    Fos_Read                                 0x08002225   Thumb Code    10  fos.o(i.Fos_Read)
    Fos_Write                                0x08002235   Thumb Code    10  fos.o(i.Fos_Write)
    GM_Cmd                                   0x08002245   Thumb Code    72  motor.o(i.GM_Cmd)
    GPIO_Af                                  0x0800228d   Thumb Code    40  stm32util.o(i.GPIO_Af)
    GPIO_Config                              0x080022b5   Thumb Code   236  stm32util.o(i.GPIO_Config)
    GPIO_In                                  0x080023cd   Thumb Code    16  stm32util.o(i.GPIO_In)
    GPIO_Init                                0x080023dd   Thumb Code   162  stm32f4xx_gpio.o(i.GPIO_Init)
    GPIO_Out                                 0x0800247f   Thumb Code    18  stm32util.o(i.GPIO_Out)
    GPIO_PinAFConfig                         0x08002491   Thumb Code    32  stm32f4xx_gpio.o(i.GPIO_PinAFConfig)
    GPIO_ReadInputDataBit                    0x080024b1   Thumb Code    14  stm32f4xx_gpio.o(i.GPIO_ReadInputDataBit)
    GPIO_ReadOutputDataBit                   0x080024bf   Thumb Code    14  stm32f4xx_gpio.o(i.GPIO_ReadOutputDataBit)
    GPIO_ResetBits                           0x080024cd   Thumb Code     4  stm32f4xx_gpio.o(i.GPIO_ResetBits)
    GPIO_SetBits                             0x080024d1   Thumb Code     4  stm32f4xx_gpio.o(i.GPIO_SetBits)
    HardFault_Handler                        0x08002e81   Thumb Code     2  stm32f4xx_it.o(i.HardFault_Handler)
    Hcf_Init                                 0x08002e85   Thumb Code    38  hcf.o(i.Hcf_Init)
    Hcf_Proc                                 0x08002eab   Thumb Code    64  hcf.o(i.Hcf_Proc)
    Hci_Init                                 0x08002eed   Thumb Code    48  hci.o(i.Hci_Init)
    Hci_MouseBtn                             0x08002f21   Thumb Code    12  hci.o(i.Hci_MouseBtn)
    Hci_PreProc                              0x08002f31   Thumb Code     8  hci.o(i.Hci_PreProc)
    Hci_Proc                                 0x08002f3d   Thumb Code    24  hci.o(i.Hci_Proc)
    Hcp_Dec                                  0x08002f55   Thumb Code    30  hcp.o(i.Hcp_Dec)
    Hcp_Init                                 0x08002f73   Thumb Code    28  hcp.o(i.Hcp_Init)
    IST8310_AuxCfg                           0x08002f8f   Thumb Code   168  ist8310_drv.o(i.IST8310_AuxCfg)
    IST8310_Config                           0x08003039   Thumb Code    14  ist8310.o(i.IST8310_Config)
    IST8310_I2C_Read_Reg                     0x08003047   Thumb Code    98  ist8310_i2c.o(i.IST8310_I2C_Read_Reg)
    IST8310_I2C_Write_Reg                    0x080030a9   Thumb Code    86  ist8310_i2c.o(i.IST8310_I2C_Write_Reg)
    IST8310_Init                             0x080030ff   Thumb Code   372  ist8310_drv.o(i.IST8310_Init)
    Ini_Init                                 0x08003275   Thumb Code     8  ini.o(i.Ini_Init)
    Ini_IsDone                               0x08003281   Thumb Code     4  ini.o(i.Ini_IsDone)
    Ini_Proc                                 0x08003285   Thumb Code   126  ini.o(i.Ini_Proc)
    Ios_GetCh                                0x08003315   Thumb Code     4  ios.o(i.Ios_GetCh)
    Ios_Init                                 0x08003319   Thumb Code    18  ios.o(i.Ios_Init)
    Ios_PutCh                                0x08003335   Thumb Code    18  ios.o(i.Ios_PutCh)
    Ios_SetIn                                0x08003349   Thumb Code    10  ios.o(i.Ios_SetIn)
    Ios_SetOut                               0x08003359   Thumb Code    10  ios.o(i.Ios_SetOut)
    KOS_Boot                                 0x08003369   Thumb Code    42  kos.o(i.KOS_Boot)
    Key_Config                               0x0800339d   Thumb Code    34  key.o(i.Key_Config)
    Led_Config                               0x080033c9   Thumb Code    40  led.o(i.Led_Config)
    MPU6500_CheckDevice                      0x080033f9   Thumb Code    42  mpu6500_drv.o(i.MPU6500_CheckDevice)
    MPU6500_Config                           0x08003425   Thumb Code    14  mpu6500.o(i.MPU6500_Config)
    MPU6500_Init                             0x08003435   Thumb Code    56  mpu6500_drv.o(i.MPU6500_Init)
    MPU6500_SPI_Read_Reg                     0x08003471   Thumb Code    86  mpu6500_spi.o(i.MPU6500_SPI_Read_Reg)
    MPU6500_SPI_Write_Reg                    0x080034d1   Thumb Code    72  mpu6500_spi.o(i.MPU6500_SPI_Write_Reg)
    Maf_Init                                 0x08003521   Thumb Code     8  maf.o(i.Maf_Init)
    Maf_Proc                                 0x08003529   Thumb Code    66  maf.o(i.Maf_Proc)
    Maf_Reset                                0x0800356d   Thumb Code    42  maf.o(i.Maf_Reset)
    Mec_Decomp                               0x0800359d   Thumb Code    10  mec.o(i.Mec_Decomp)
    Mec_Init                                 0x080035ad   Thumb Code    40  mec.o(i.Mec_Init)
    Mec_Synthe                               0x080035dd   Thumb Code    10  mec.o(i.Mec_Synthe)
    Mecanum_Config                           0x080035ed   Thumb Code    42  mecanum.o(i.Mecanum_Config)
    Mecanum_Decomp                           0x08003617   Thumb Code   142  mecanum.o(i.Mecanum_Decomp)
    Mecanum_Synthe                           0x080036a5   Thumb Code   114  mecanum.o(i.Mecanum_Synthe)
    Med_Init                                 0x08003719   Thumb Code    50  med.o(i.Med_Init)
    Med_Proc                                 0x08003751   Thumb Code    66  med.o(i.Med_Proc)
    MemManage_Handler                        0x08003793   Thumb Code     2  stm32f4xx_it.o(i.MemManage_Handler)
    Motor_Process                            0x08003795   Thumb Code   288  can.o(i.Motor_Process)
    Motor_Ready                              0x080038d9   Thumb Code    14  can.o(i.Motor_Ready)
    Motor_Reset                              0x080038e7   Thumb Code     6  can.o(i.Motor_Reset)
    Msg_Pop                                  0x080038ed   Thumb Code   118  msg.o(i.Msg_Pop)
    Msg_Push                                 0x08003963   Thumb Code    74  msg.o(i.Msg_Push)
    NMI_Handler                              0x080039ad   Thumb Code     2  stm32f4xx_it.o(i.NMI_Handler)
    NVIC_Config                              0x080039af   Thumb Code    28  stm32util.o(i.NVIC_Config)
    NVIC_Init                                0x080039cd   Thumb Code    96  misc.o(i.NVIC_Init)
    NVIC_PriorityGroupConfig                 0x08003a31   Thumb Code    10  misc.o(i.NVIC_PriorityGroupConfig)
    Odo_Init                                 0x08003a45   Thumb Code    18  odo.o(i.Odo_Init)
    Odo_Proc                                 0x08003a65   Thumb Code   268  odo.o(i.Odo_Proc)
    PID_Calc                                 0x08003b99   Thumb Code   278  pid.o(i.PID_Calc)
    PID_Config                               0x08003cb5   Thumb Code     6  pid.o(i.PID_Config)
    PID_Reset                                0x08003cbd   Thumb Code    30  pid.o(i.PID_Reset)
    PWM_Bind                                 0x08003ce1   Thumb Code  5436  stm32util.o(i.PWM_Bind)
    Pwm_Config                               0x08005225   Thumb Code    82  pwm.o(i.Pwm_Config)
    Pwr_Init                                 0x08005281   Thumb Code    72  pwr.o(i.Pwr_Init)
    Pwr_IsOkay                               0x080052d1   Thumb Code    16  pwr.o(i.Pwr_IsOkay)
    RCC_AHB1PeriphClockCmd                   0x080052e5   Thumb Code    18  stm32f4xx_rcc.o(i.RCC_AHB1PeriphClockCmd)
    RCC_APB1PeriphClockCmd                   0x080052fd   Thumb Code    18  stm32f4xx_rcc.o(i.RCC_APB1PeriphClockCmd)
    RCC_APB2PeriphClockCmd                   0x08005315   Thumb Code    18  stm32f4xx_rcc.o(i.RCC_APB2PeriphClockCmd)
    RCC_GetClocksFreq                        0x0800532d   Thumb Code   132  stm32f4xx_rcc.o(i.RCC_GetClocksFreq)
    Rcf_Init                                 0x080053c1   Thumb Code    40  rcf.o(i.Rcf_Init)
    Rcf_Proc                                 0x080053e9   Thumb Code    64  rcf.o(i.Rcf_Proc)
    Rci_Init                                 0x08005429   Thumb Code     6  rci.o(i.Rci_Init)
    Rci_PreProc                              0x08005435   Thumb Code     8  rci.o(i.Rci_PreProc)
    Rci_Proc                                 0x08005441   Thumb Code    18  rci.o(i.Rci_Proc)
    Rci_Sw                                   0x08005455   Thumb Code    12  rci.o(i.Rci_Sw)
    Rcp_Dec                                  0x08005465   Thumb Code    78  rcp.o(i.Rcp_Dec)
    Rcp_Enc                                  0x080054b3   Thumb Code    64  rcp.o(i.Rcp_Enc)
    Rcp_Init                                 0x080054f5   Thumb Code    38  rcp.o(i.Rcp_Init)
    RcvCallback                              0x0800551b   Thumb Code     4  rcv_srv.o(i.RcvCallback)
    Rcv_Config                               0x08005521   Thumb Code   126  rcv.o(i.Rcv_Config)
    Rcv_Proc                                 0x080055b5   Thumb Code    28  dci.o(i.Rcv_Proc)
    Rmp_Calc                                 0x080055d5   Thumb Code    42  rmp.o(i.Rmp_Calc)
    Rmp_Config                               0x080055ff   Thumb Code     4  rmp.o(i.Rmp_Config)
    Rmp_Reset                                0x08005605   Thumb Code    14  rmp.o(i.Rmp_Reset)
    SPI_Bind                                 0x08005619   Thumb Code  2506  stm32util.o(i.SPI_Bind)
    SPI_Cmd                                  0x08005ff1   Thumb Code    20  stm32f4xx_spi.o(i.SPI_Cmd)
    SPI_Config                               0x08006005   Thumb Code   166  stm32util.o(i.SPI_Config)
    SPI_Init                                 0x080060c5   Thumb Code    56  stm32f4xx_spi.o(i.SPI_Init)
    SPI_TxRxByte                             0x080060fd   Thumb Code    40  stm32util.o(i.SPI_TxRxByte)
    SR04Callback                             0x08006125   Thumb Code     4  ext_srv.o(i.SR04Callback)
    SR04_Bind                                0x08006129   Thumb Code    28  sr04.o(i.SR04_Bind)
    SR04_Config                              0x08006149   Thumb Code    24  sr04.o(i.SR04_Config)
    SYSCFG_EXTILineConfig                    0x080061cd   Thumb Code    42  stm32f4xx_syscfg.o(i.SYSCFG_EXTILineConfig)
    Sch_Arrange                              0x080061fd   Thumb Code    58  sch.o(i.Sch_Arrange)
    Sch_Init                                 0x0800623d   Thumb Code    20  sch.o(i.Sch_Init)
    Sch_Proc                                 0x08006255   Thumb Code    42  sch.o(i.Sch_Proc)
    Snd_Init                                 0x08006355   Thumb Code    10  snd.o(i.Snd_Init)
    Snd_Play                                 0x08006365   Thumb Code     8  snd.o(i.Snd_Play)
    Snd_Proc                                 0x08006371   Thumb Code    58  snd.o(i.Snd_Proc)
    Snd_Stop                                 0x080063b1   Thumb Code     8  snd.o(i.Snd_Stop)
    Spi5_Config                              0x080063bd   Thumb Code    74  spi5.o(i.Spi5_Config)
    Sr04_Proc                                0x08006411   Thumb Code    74  srs.o(i.Sr04_Proc)
    Srs_Fall                                 0x0800645d   Thumb Code   148  srs.o(i.Srs_Fall)
    Srs_Init                                 0x080064fd   Thumb Code    18  srs.o(i.Srs_Init)
    Srs_Rise                                 0x08006511   Thumb Code    68  srs.o(i.Srs_Rise)
    Srs_Start                                0x0800655d   Thumb Code    52  srs.o(i.Srs_Start)
    SyncTimCallback                          0x08006595   Thumb Code     4  tim_srv.o(i.SyncTimCallback)
    SyncTim_Config                           0x08006599   Thumb Code    38  tim.o(i.SyncTim_Config)
    SyncTim_Start                            0x080065c5   Thumb Code    34  tim.o(i.SyncTim_Start)
    SysTick_Handler                          0x080065ed   Thumb Code    38  port.o(i.SysTick_Handler)
    SystemInit                               0x08006619   Thumb Code    74  system_stm32f4xx.o(i.SystemInit)
    TIM2_IRQHandler                          0x08006675   Thumb Code    42  tim.o(i.TIM2_IRQHandler)
    TIM6_DAC_IRQHandler                      0x080066a1   Thumb Code    42  tim.o(i.TIM6_DAC_IRQHandler)
    TIM_ARRPreloadConfig                     0x080066d1   Thumb Code    20  stm32f4xx_tim.o(i.TIM_ARRPreloadConfig)
    TIM_ClearFlag                            0x080066e5   Thumb Code     6  stm32f4xx_tim.o(i.TIM_ClearFlag)
    TIM_ClearITPendingBit                    0x080066eb   Thumb Code     6  stm32f4xx_tim.o(i.TIM_ClearITPendingBit)
    TIM_Cmd                                  0x080066f1   Thumb Code    20  stm32f4xx_tim.o(i.TIM_Cmd)
    TIM_Config                               0x08006705   Thumb Code   276  stm32util.o(i.TIM_Config)
    TIM_GetITStatus                          0x08006849   Thumb Code    24  stm32f4xx_tim.o(i.TIM_GetITStatus)
    TIM_ITConfig                             0x08006861   Thumb Code    16  stm32f4xx_tim.o(i.TIM_ITConfig)
    TIM_OC1Init                              0x08006871   Thumb Code    88  stm32f4xx_tim.o(i.TIM_OC1Init)
    TIM_OC1PreloadConfig                     0x080068d1   Thumb Code    12  stm32f4xx_tim.o(i.TIM_OC1PreloadConfig)
    TIM_OC2Init                              0x080068dd   Thumb Code   120  stm32f4xx_tim.o(i.TIM_OC2Init)
    TIM_OC2PreloadConfig                     0x0800695d   Thumb Code    20  stm32f4xx_tim.o(i.TIM_OC2PreloadConfig)
    TIM_OC3Init                              0x08006971   Thumb Code   116  stm32f4xx_tim.o(i.TIM_OC3Init)
    TIM_OC3PreloadConfig                     0x080069ed   Thumb Code    12  stm32f4xx_tim.o(i.TIM_OC3PreloadConfig)
    TIM_OC4Init                              0x080069f9   Thumb Code    88  stm32f4xx_tim.o(i.TIM_OC4Init)
    TIM_OC4PreloadConfig                     0x08006a59   Thumb Code    20  stm32f4xx_tim.o(i.TIM_OC4PreloadConfig)
    TIM_OC_Config                            0x08006a6d   Thumb Code   130  stm32util.o(i.TIM_OC_Config)
    TIM_TimeBaseInit                         0x08006af1   Thumb Code    96  stm32f4xx_tim.o(i.TIM_TimeBaseInit)
    TickTimCallback                          0x08006b6d   Thumb Code     2  tim_srv.o(i.TickTimCallback)
    TickTim_Config                           0x08006b6f   Thumb Code    46  tim.o(i.TickTim_Config)
    TickTim_Start                            0x08006b9d   Thumb Code    34  tim.o(i.TickTim_Start)
    Tim_Config                               0x08006bbf   Thumb Code    14  tim.o(i.Tim_Config)
    Tim_Start                                0x08006bcd   Thumb Code    14  tim.o(i.Tim_Start)
    TtyRxCallback                            0x08006bdb   Thumb Code     4  com_srv.o(i.TtyRxCallback)
    Tty_Config                               0x08006be1   Thumb Code    94  tty.o(i.Tty_Config)
    Tty_GetCh                                0x08006c51   Thumb Code    60  tty.o(i.Tty_GetCh)
    Tty_GetRxFifoFree                        0x08006c95   Thumb Code     6  tty.o(i.Tty_GetRxFifoFree)
    Tty_GetRxFifoSize                        0x08006ca1   Thumb Code     6  tty.o(i.Tty_GetRxFifoSize)
    Tty_GetRxFifoUsed                        0x08006cad   Thumb Code     6  tty.o(i.Tty_GetRxFifoUsed)
    Tty_GetTxFifoFree                        0x08006cb9   Thumb Code     6  tty.o(i.Tty_GetTxFifoFree)
    Tty_GetTxFifoSize                        0x08006cc5   Thumb Code     6  tty.o(i.Tty_GetTxFifoSize)
    Tty_GetTxFifoUsed                        0x08006cd1   Thumb Code     6  tty.o(i.Tty_GetTxFifoUsed)
    Tty_Print                                0x08006cdd   Thumb Code    28  tty.o(i.Tty_Print)
    Tty_Proc                                 0x08006cf9   Thumb Code     6  com.o(i.Tty_Proc)
    Tty_PutCh                                0x08006d01   Thumb Code    50  tty.o(i.Tty_PutCh)
    Tty_Read                                 0x08006d3d   Thumb Code    70  tty.o(i.Tty_Read)
    Tty_ReadByte                             0x08006d8d   Thumb Code    64  tty.o(i.Tty_ReadByte)
    Tty_Write                                0x08006dd5   Thumb Code    70  tty.o(i.Tty_Write)
    Tty_WriteByte                            0x08006e25   Thumb Code    58  tty.o(i.Tty_WriteByte)
    USART1_IRQHandler                        0x08006e69   Thumb Code   104  rcv.o(i.USART1_IRQHandler)
    USART2_IRQHandler                        0x08006edd   Thumb Code   142  btm.o(i.USART2_IRQHandler)
    USART3_IRQHandler                        0x08006f75   Thumb Code   142  dbi.o(i.USART3_IRQHandler)
    USART6_IRQHandler                        0x0800700d   Thumb Code   142  tty.o(i.USART6_IRQHandler)
    USART_Bind                               0x080070a5   Thumb Code  3544  stm32util.o(i.USART_Bind)
    USART_Cmd                                0x08007e85   Thumb Code    20  stm32f4xx_usart.o(i.USART_Cmd)
    USART_Config                             0x08007e99   Thumb Code   366  stm32util.o(i.USART_Config)
    USART_DMACmd                             0x08008029   Thumb Code    16  stm32f4xx_usart.o(i.USART_DMACmd)
    USART_GetITStatus                        0x08008039   Thumb Code    62  stm32f4xx_usart.o(i.USART_GetITStatus)
    USART_ITConfig                           0x08008077   Thumb Code    48  stm32f4xx_usart.o(i.USART_ITConfig)
    USART_Init                               0x080080a9   Thumb Code   164  stm32f4xx_usart.o(i.USART_Init)
    USART_ReceiveData                        0x08008155   Thumb Code     8  stm32f4xx_usart.o(i.USART_ReceiveData)
    USART_SendData                           0x0800815d   Thumb Code     8  stm32f4xx_usart.o(i.USART_SendData)
    Upd_Init                                 0x08008165   Thumb Code    48  upd.o(i.Upd_Init)
    Upd_Proc                                 0x0800819d   Thumb Code   102  upd.o(i.Upd_Proc)
    Upl_Init                                 0x08008205   Thumb Code    14  upl.o(i.Upl_Init)
    Upl_Proc                                 0x08008219   Thumb Code   280  upl.o(i.Upl_Proc)
    UsageFault_Handler                       0x08008565   Thumb Code     2  stm32f4xx_it.o(i.UsageFault_Handler)
    Wdg_Feed                                 0x08008569   Thumb Code    10  wdg.o(i.Wdg_Feed)
    Wdg_GetErr                               0x08008579   Thumb Code     6  wdg.o(i.Wdg_GetErr)
    Wdg_HasErr                               0x08008585   Thumb Code     8  wdg.o(i.Wdg_HasErr)
    Wdg_HitErr                               0x08008591   Thumb Code    16  wdg.o(i.Wdg_HitErr)
    Wdg_Init                                 0x080085a5   Thumb Code    34  wdg.o(i.Wdg_Init)
    Wdg_IsOkay                               0x080085d1   Thumb Code    28  wdg.o(i.Wdg_IsOkay)
    Wdg_Proc                                 0x080085ed   Thumb Code    58  wdg.o(i.Wdg_Proc)
    Wsm_GetLastWs                            0x08008631   Thumb Code     6  wsm.o(i.Wsm_GetLastWs)
    Wsm_GetWs                                0x0800863d   Thumb Code     6  wsm.o(i.Wsm_GetWs)
    Wsm_Init                                 0x08008649   Thumb Code    10  wsm.o(i.Wsm_Init)
    Wsm_Proc                                 0x08008659   Thumb Code   218  wsm.o(i.Wsm_Proc)
    ZGyro_Process                            0x08008739   Thumb Code   128  can.o(i.ZGyro_Process)
    ZGyro_Ready                              0x080087c5   Thumb Code    14  can.o(i.ZGyro_Ready)
    ZGyro_Reset                              0x080087d3   Thumb Code     6  can.o(i.ZGyro_Reset)
    __scatterload_copy                       0x080087d9   Thumb Code    14  handlers.o(i.__scatterload_copy)
    __scatterload_null                       0x080087e7   Thumb Code     2  handlers.o(i.__scatterload_null)
    __scatterload_zeroinit                   0x080087e9   Thumb Code    14  handlers.o(i.__scatterload_zeroinit)
    constrain                                0x080087f7   Thumb Code    32  fun.o(i.constrain)
    isort                                    0x08008835   Thumb Code    60  fun.o(i.isort)
    main                                     0x08008871   Thumb Code    50  main.o(i.main)
    malloc                                   0x080088a5   Thumb Code    92  malloc.o(i.malloc)
    map                                      0x08008911   Thumb Code    56  fun.o(i.map)
    sort                                     0x08008991   Thumb Code    44  fun.o(i.sort)
    uxListRemove                             0x080089bd   Thumb Code    36  list.o(i.uxListRemove)
    vListInsertEnd                           0x080089e1   Thumb Code    24  list.o(i.vListInsertEnd)
    vTaskSwitchContext                       0x080089f9   Thumb Code    82  tasks.o(i.vTaskSwitchContext)
    xTaskIncrementTick                       0x08008a55   Thumb Code   192  tasks.o(i.xTaskIncrementTick)
    msg_head_vrc                             0x08008f5c   Data           4  msg.o(.constdata)
    msg_head_vhc                             0x08008f60   Data           4  msg.o(.constdata)
    msg_head_vdbus                           0x08008f64   Data           4  msg.o(.constdata)
    msg_head_vcbus                           0x08008f68   Data           4  msg.o(.constdata)
    msg_head_zgyro                           0x08008f6c   Data           4  msg.o(.constdata)
    msg_head_kylin                           0x08008f70   Data           4  msg.o(.constdata)
    msg_head_pos_calib                       0x08008f74   Data           4  msg.o(.constdata)
    msg_head_sr04s                           0x08008f78   Data           4  msg.o(.constdata)
    BEEP_TONE_TABLE                          0x08008f7c   Data          42  beep.o(.constdata)
    BEEP_START_UP_MUSIC                      0x08008fa6   Data          14  beep.o(.constdata)
    sr04                                     0x08008fc4   Data          32  sr04.o(.constdata)
    tty                                      0x08008fe4   Data          52  tty.o(.constdata)
    Region$$Table$$Base                      0x08009018   Number         0  anon$$obj.o(Region$$Table)
    Region$$Table$$Limit                     0x08009038   Number         0  anon$$obj.o(Region$$Table)
    cfg_sync_flag                            0x20000014   Data           1  cfg.o(.data)
    cfg                                      0x20000015   Data         242  cfg.o(.data)
    _in                                      0x20000120   Data           4  ios.o(.data)
    _out                                     0x20000124   Data           4  ios.o(.data)
    pxCurrentTCB                             0x200001b0   Data           4  tasks.o(.data)
    __microlib_freelist                      0x200001ec   Data           4  mvars.o(.data)
    __microlib_freelist_initialised          0x200001f0   Data           4  mvars.o(.data)
    zgyro                                    0x20000210   Data          44  can.o(.bss)
    motor                                    0x2000023c   Data         720  can.o(.bss)
    cmd                                      0x2000050c   Data          76  cmd.o(.bss)
    ctl                                      0x20000558   Data          76  ctl.o(.bss)
    pid                                      0x200005a4   Data         480  ctl.o(.bss)
    rmp                                      0x20000784   Data          12  ctl.o(.bss)
    dbus                                     0x20000790   Data          22  dci.o(.bss)
    odo                                      0x20000b24   Data         100  odo.o(.bss)
    srs                                      0x20000e38   Data         368  srs.o(.bss)
    extiHandlers                             0x2000169c   Data          64  stm32util.o(.bss)
    __heap_base                              0x200019d0   Data           0  startup_stm32f427xx.o(HEAP)
    __heap_limit                             0x200029d0   Data           0  startup_stm32f427xx.o(HEAP)
    __initial_sp                             0x20002dd0   Data           0  startup_stm32f427xx.o(STACK)



==============================================================================

Memory Map of the image

  Image Entry point : 0x080001ad

  Load Region LR_IROM1 (Base: 0x08000000, Size: 0x0000922c, Max: 0x00200000, ABSOLUTE, COMPRESSED[0x000090b0])

    Execution Region ER_IROM1 (Base: 0x08000000, Size: 0x00009038, Max: 0x00200000, ABSOLUTE)

    Base Addr    Size         Type   Attr      Idx    E Section Name        Object

    0x08000000   0x000001ac   Data   RO        10126    RESET               startup_stm32f427xx.o
    0x080001ac   0x00000000   Code   RO        11016  * .ARM.Collect$$$$00000000  mc_w.l(entry.o)
    0x080001ac   0x00000004   Code   RO        11102    .ARM.Collect$$$$00000001  mc_w.l(entry2.o)
    0x080001b0   0x00000004   Code   RO        11105    .ARM.Collect$$$$00000004  mc_w.l(entry5.o)
    0x080001b4   0x00000000   Code   RO        11107    .ARM.Collect$$$$00000008  mc_w.l(entry7b.o)
    0x080001b4   0x00000000   Code   RO        11109    .ARM.Collect$$$$0000000A  mc_w.l(entry8b.o)
    0x080001b4   0x00000008   Code   RO        11110    .ARM.Collect$$$$0000000B  mc_w.l(entry9a.o)
    0x080001bc   0x00000000   Code   RO        11112    .ARM.Collect$$$$0000000D  mc_w.l(entry10a.o)
    0x080001bc   0x00000000   Code   RO        11114    .ARM.Collect$$$$0000000F  mc_w.l(entry11a.o)
    0x080001bc   0x00000004   Code   RO        11103    .ARM.Collect$$$$00002712  mc_w.l(entry2.o)
    0x080001c0   0x000000b6   Code   RO        10901    .emb_text           port.o
    0x08000276   0x00000002   PAD
    0x08000278   0x00000024   Code   RO        10127    .text               startup_stm32f427xx.o
    0x0800029c   0x00000024   Code   RO        11019    .text               mc_w.l(memcpya.o)
    0x080002c0   0x00000024   Code   RO        11021    .text               mc_w.l(memseta.o)
    0x080002e4   0x0000000e   Code   RO        11023    .text               mc_w.l(strlen.o)
    0x080002f2   0x00000002   PAD
    0x080002f4   0x00000024   Code   RO        11138    .text               mc_w.l(init.o)
    0x08000318   0x00000056   Code   RO        11154    .text               mc_w.l(__dczerorl2.o)
    0x0800036e   0x00000002   PAD
    0x08000370   0x0000002c   Code   RO          632    i.Act_Init          act.o
    0x0800039c   0x00000050   Code   RO          633    i.Act_Proc          act.o
    0x080003ec   0x00000056   Code   RO          662    i.App_Init          app.o
    0x08000442   0x00000016   Code   RO          663    i.App_Proc          app.o
    0x08000458   0x00000034   Code   RO         3421    i.Beep_Config       beep.o
    0x0800048c   0x00000024   Code   RO         3422    i.Beep_Sing         beep.o
    0x080004b0   0x00000014   Code   RO         3423    i.Beep_SingStartupMusic  beep.o
    0x080004c4   0x0000005c   Code   RO         3463    i.Bsp_Config        bsp.o
    0x08000520   0x00000004   Code   RO         3286    i.BtmRxCallback     com_srv.o
    0x08000524   0x00000070   Code   RO         3487    i.Btm_Config        btm.o
    0x08000594   0x00000006   Code   RO         1106    i.Btm_Proc          com.o
    0x0800059a   0x00000002   PAD
    0x0800059c   0x0000003c   Code   RO         3496    i.Btm_PutCh         btm.o
    0x080005d8   0x0000000c   Code   RO         3602    i.Btn_Config        btn.o
    0x080005e4   0x00000002   Code   RO          435    i.BusFault_Handler  stm32f4xx_it.o
    0x080005e6   0x00000002   PAD
    0x080005e8   0x00000044   Code   RO         3626    i.CAN1_RX0_IRQHandler  can1.o
    0x0800062c   0x00000024   Code   RO         3627    i.CAN1_TX_IRQHandler  can1.o
    0x08000650   0x00000044   Code   RO         3674    i.CAN2_RX0_IRQHandler  can2.o
    0x08000694   0x00000024   Code   RO         3675    i.CAN2_TX_IRQHandler  can2.o
    0x080006b8   0x00000030   Code   RO         5265    i.CAN_ClearFlag     stm32f4xx_can.o
    0x080006e8   0x00000078   Code   RO         5266    i.CAN_ClearITPendingBit  stm32f4xx_can.o
    0x08000760   0x0000006c   Code   RO         4330    i.CAN_Config        stm32util.o
    0x080007cc   0x000000cc   Code   RO         5270    i.CAN_FilterInit    stm32f4xx_can.o
    0x08000898   0x00000036   Code   RO         4331    i.CAN_Filter_Config  stm32util.o
    0x080008ce   0x00000002   PAD
    0x080008d0   0x000000a8   Code   RO         5272    i.CAN_GetITStatus   stm32f4xx_can.o
    0x08000978   0x00000010   Code   RO         5276    i.CAN_ITConfig      stm32f4xx_can.o
    0x08000988   0x000000e8   Code   RO         5277    i.CAN_Init          stm32f4xx_can.o
    0x08000a70   0x00000090   Code   RO         5280    i.CAN_Receive       stm32f4xx_can.o
    0x08000b00   0x000000a4   Code   RO         5285    i.CAN_Transmit      stm32f4xx_can.o
    0x08000ba4   0x00000006   Code   RO         2313    i.CBUS_Init         cbus.o
    0x08000baa   0x0000004e   Code   RO         4820    i.CM_Cmd            motor.o
    0x08000bf8   0x00000022   Code   RO         2328    i.CRC16Append       crc16.o
    0x08000c1a   0x00000002   PAD
    0x08000c1c   0x00000030   Code   RO         2329    i.CRC16Calc         crc16.o
    0x08000c4c   0x00000030   Code   RO         2330    i.CRC16Check        crc16.o
    0x08000c7c   0x0000001c   Code   RO          696    i.Cal_Init          cal.o
    0x08000c98   0x00000004   Code   RO          697    i.Cal_IsDone        cal.o
    0x08000c9c   0x00000004   Code   RO          698    i.Cal_Proc          cal.o
    0x08000ca0   0x00000074   Code   RO          699    i.Cal_ProcGim       cal.o
    0x08000d14   0x000000ec   Code   RO          700    i.Cal_ProcGpe       cal.o
    0x08000e00   0x00000010   Code   RO          701    i.Cal_SetFlag       cal.o
    0x08000e10   0x00000044   Code   RO          702    i.Cal_SetGpeh       cal.o
    0x08000e54   0x00000044   Code   RO          703    i.Cal_SetGpel       cal.o
    0x08000e98   0x00000004   Code   RO         3265    i.Can1RxCallback    can_srv.o
    0x08000e9c   0x00000070   Code   RO         3628    i.Can1_Config       can1.o
    0x08000f0c   0x00000004   Code   RO         3266    i.Can2RxCallback    can_srv.o
    0x08000f10   0x00000074   Code   RO         3676    i.Can2_Config       can2.o
    0x08000f84   0x0000002c   Code   RO          782    i.Can_Init          can.o
    0x08000fb0   0x000000b4   Code   RO          783    i.Can_Proc          can.o
    0x08001064   0x00000012   Code   RO          855    i.Cci_Proc          cci.o
    0x08001076   0x00000002   PAD
    0x08001078   0x0000000c   Code   RO          901    i.Cfg_GetFlag       cfg.o
    0x08001084   0x00000104   Code   RO          903    i.Cfg_Init          cfg.o
    0x08001188   0x00000014   Code   RO          904    i.Cfg_IsSynced      cfg.o
    0x0800119c   0x00000006   Code   RO          905    i.Cfg_Load          cfg.o
    0x080011a2   0x00000002   PAD
    0x080011a4   0x0000001c   Code   RO          906    i.Cfg_Proc          cfg.o
    0x080011c0   0x00000006   Code   RO          908    i.Cfg_Save          cfg.o
    0x080011c6   0x00000002   PAD
    0x080011c8   0x0000009c   Code   RO         1158    i.ChassisStateCtl   ctl.o
    0x08001264   0x0000000c   Code   RO         5288    i.CheckITStatus     stm32f4xx_can.o
    0x08001270   0x00000010   Code   RO          996    i.Clk_GetMsTick     clk.o
    0x08001280   0x00000008   Code   RO          998    i.Clk_GetUsTick     clk.o
    0x08001288   0x00000014   Code   RO          999    i.Clk_Init          clk.o
    0x0800129c   0x0000000c   Code   RO         1064    i.Cmd_Init          cmd.o
    0x080012a8   0x0000013c   Code   RO         1065    i.Cmd_Proc          cmd.o
    0x080013e4   0x0000000e   Code   RO         1107    i.Com_Init          com.o
    0x080013f2   0x00000002   PAD
    0x080013f4   0x00000064   Code   RO         1159    i.Cpl_Init          ctl.o
    0x08001458   0x0000006c   Code   RO         1160    i.Ctl_Init          ctl.o
    0x080014c4   0x00000030   Code   RO         1161    i.Ctl_Proc          ctl.o
    0x080014f4   0x00000064   Code   RO         1163    i.Cvl_Init          ctl.o
    0x08001558   0x00000018   Code   RO         2393    i.DBUS_Dec          dbus.o
    0x08001570   0x00000014   Code   RO         2395    i.DBUS_Init         dbus.o
    0x08001584   0x00000014   Code   RO         6060    i.DMA_Cmd           stm32f4xx_dma.o
    0x08001598   0x0000006c   Code   RO         4332    i.DMA_Config        stm32util.o
    0x08001604   0x00000014   Code   RO         6062    i.DMA_DoubleBufferModeCmd  stm32f4xx_dma.o
    0x08001618   0x00000016   Code   RO         6063    i.DMA_DoubleBufferModeConfig  stm32f4xx_dma.o
    0x0800162e   0x00000006   Code   RO         6066    i.DMA_GetCurrDataCounter  stm32f4xx_dma.o
    0x08001634   0x0000000e   Code   RO         6067    i.DMA_GetCurrentMemoryTarget  stm32f4xx_dma.o
    0x08001642   0x00000002   PAD
    0x08001644   0x00000054   Code   RO         6072    i.DMA_Init          stm32f4xx_dma.o
    0x08001698   0x00000004   Code   RO         3287    i.DbiRxCallback     com_srv.o
    0x0800169c   0x00000070   Code   RO         3722    i.Dbi_Config        dbi.o
    0x0800170c   0x00000044   Code   RO         3723    i.Dbi_GetCh         dbi.o
    0x08001750   0x00000006   Code   RO         1109    i.Dbi_Proc          com.o
    0x08001756   0x00000002   PAD
    0x08001758   0x0000003c   Code   RO         3731    i.Dbi_PutCh         dbi.o
    0x08001794   0x00000018   Code   RO         1239    i.Dci_Init          dci.o
    0x080017ac   0x00000048   Code   RO         1240    i.Dci_Proc          dci.o
    0x080017f4   0x00000002   Code   RO          436    i.DebugMon_Handler  stm32f4xx_it.o
    0x080017f6   0x00000018   Code   RO         4764    i.Delay_Ms          delay.o
    0x0800180e   0x00000002   PAD
    0x08001810   0x00000020   Code   RO         1281    i.Dnl_Init          dnl.o
    0x08001830   0x00000178   Code   RO         1282    i.Dnl_Proc          dnl.o
    0x080019a8   0x00000030   Code   RO         4333    i.EXTI0_IRQHandler  stm32util.o
    0x080019d8   0x000000d4   Code   RO         4334    i.EXTI15_10_IRQHandler  stm32util.o
    0x08001aac   0x00000030   Code   RO         4335    i.EXTI1_IRQHandler  stm32util.o
    0x08001adc   0x00000030   Code   RO         4336    i.EXTI2_IRQHandler  stm32util.o
    0x08001b0c   0x00000030   Code   RO         4337    i.EXTI3_IRQHandler  stm32util.o
    0x08001b3c   0x00000030   Code   RO         4338    i.EXTI4_IRQHandler  stm32util.o
    0x08001b6c   0x000000a8   Code   RO         4339    i.EXTI9_5_IRQHandler  stm32util.o
    0x08001c14   0x0000011c   Code   RO         4340    i.EXTI_Bind         stm32util.o
    0x08001d30   0x0000000c   Code   RO         6346    i.EXTI_ClearFlag    stm32f4xx_exti.o
    0x08001d3c   0x0000000c   Code   RO         6347    i.EXTI_ClearITPendingBit  stm32f4xx_exti.o
    0x08001d48   0x00000028   Code   RO         4341    i.EXTI_Config       stm32util.o
    0x08001d70   0x00000014   Code   RO         6351    i.EXTI_GetITStatus  stm32f4xx_exti.o
    0x08001d84   0x00000070   Code   RO         6352    i.EXTI_Init         stm32f4xx_exti.o
    0x08001df4   0x00000010   Code   RO         4342    i.EXTI_SetHandler   stm32util.o
    0x08001e04   0x00000008   Code   RO         2419    i.Ekf_Init          ekf.o
    0x08001e0c   0x0000004a   Code   RO         2420    i.Ekf_Proc          ekf.o
    0x08001e56   0x00000002   PAD
    0x08001e58   0x0000001c   Code   RO         2421    i.Ekf_Reset         ekf.o
    0x08001e74   0x00000016   Code   RO         2524    i.FIFO_Flush        fifo.o
    0x08001e8a   0x00000008   Code   RO         2525    i.FIFO_GetFree      fifo.o
    0x08001e92   0x00000004   Code   RO         2526    i.FIFO_GetSize      fifo.o
    0x08001e96   0x00000004   Code   RO         2527    i.FIFO_GetUsed      fifo.o
    0x08001e9a   0x00000008   Code   RO         2528    i.FIFO_Init         fifo.o
    0x08001ea2   0x0000000c   Code   RO         2529    i.FIFO_IsEmpty      fifo.o
    0x08001eae   0x00000010   Code   RO         2530    i.FIFO_IsFull       fifo.o
    0x08001ebe   0x00000028   Code   RO         2531    i.FIFO_Peek         fifo.o
    0x08001ee6   0x00000034   Code   RO         2532    i.FIFO_Pop          fifo.o
    0x08001f1a   0x0000003a   Code   RO         2533    i.FIFO_Push         fifo.o
    0x08001f54   0x0000001c   Code   RO         6413    i.FLASH_DataCacheCmd  stm32f4xx_flash.o
    0x08001f70   0x0000006c   Code   RO         6418    i.FLASH_EraseSector  stm32f4xx_flash.o
    0x08001fdc   0x0000003c   Code   RO         6420    i.FLASH_GetStatus   stm32f4xx_flash.o
    0x08002018   0x00000010   Code   RO         6424    i.FLASH_Lock        stm32f4xx_flash.o
    0x08002028   0x00000038   Code   RO         6445    i.FLASH_ProgramByte  stm32f4xx_flash.o
    0x08002060   0x00000024   Code   RO         6450    i.FLASH_Unlock      stm32f4xx_flash.o
    0x08002084   0x0000001e   Code   RO         6451    i.FLASH_WaitForLastOperation  stm32f4xx_flash.o
    0x080020a2   0x00000004   Code   RO         1958    i.FS_Cpy            sys.o
    0x080020a6   0x00000004   Code   RO         1959    i.FS_Det            sys.o
    0x080020aa   0x00000026   Code   RO         2601    i.Flag_Cpy          fun.o
    0x080020d0   0x0000000e   Code   RO         2602    i.Flag_Det          fun.o
    0x080020de   0x00000006   Code   RO         2603    i.Flag_Get          fun.o
    0x080020e4   0x00000008   Code   RO         2605    i.Flag_Set          fun.o
    0x080020ec   0x000000a0   Code   RO         4785    i.Flash_GetSector   flash.o
    0x0800218c   0x00000016   Code   RO         4786    i.Flash_Read        flash.o
    0x080021a2   0x00000002   PAD
    0x080021a4   0x00000080   Code   RO         4787    i.Flash_Write       flash.o
    0x08002224   0x00000010   Code   RO         1317    i.Fos_Read          fos.o
    0x08002234   0x00000010   Code   RO         1318    i.Fos_Write         fos.o
    0x08002244   0x00000048   Code   RO         4821    i.GM_Cmd            motor.o
    0x0800228c   0x00000028   Code   RO         4344    i.GPIO_Af           stm32util.o
    0x080022b4   0x00000118   Code   RO         4345    i.GPIO_Config       stm32util.o
    0x080023cc   0x00000010   Code   RO         4349    i.GPIO_In           stm32util.o
    0x080023dc   0x000000a2   Code   RO         6932    i.GPIO_Init         stm32f4xx_gpio.o
    0x0800247e   0x00000012   Code   RO         4350    i.GPIO_Out          stm32util.o
    0x08002490   0x00000020   Code   RO         6933    i.GPIO_PinAFConfig  stm32f4xx_gpio.o
    0x080024b0   0x0000000e   Code   RO         6936    i.GPIO_ReadInputDataBit  stm32f4xx_gpio.o
    0x080024be   0x0000000e   Code   RO         6938    i.GPIO_ReadOutputDataBit  stm32f4xx_gpio.o
    0x080024cc   0x00000004   Code   RO         6939    i.GPIO_ResetBits    stm32f4xx_gpio.o
    0x080024d0   0x00000004   Code   RO         6940    i.GPIO_SetBits      stm32f4xx_gpio.o
    0x080024d4   0x000001d0   Code   RO          856    i.GetChassisStateRef  cci.o
    0x080026a4   0x000000f8   Code   RO         1353    i.GetChassisStateRef  hci.o
    0x0800279c   0x000000c4   Code   RO         1691    i.GetChassisStateRef  rci.o
    0x08002860   0x000000b4   Code   RO         1586    i.GetFunctionalStateFdb  odo.o
    0x08002914   0x00000238   Code   RO          857    i.GetGrabberStateRef  cci.o
    0x08002b4c   0x00000100   Code   RO         1354    i.GetGrabberStateRef  hci.o
    0x08002c4c   0x000000f0   Code   RO         1692    i.GetGrabberStateRef  rci.o
    0x08002d3c   0x00000064   Code   RO         1164    i.Gpl_Init          ctl.o
    0x08002da0   0x0000007c   Code   RO         1165    i.GrabberStateCtl   ctl.o
    0x08002e1c   0x00000064   Code   RO         1166    i.Gvl_Init          ctl.o
    0x08002e80   0x00000002   Code   RO          437    i.HardFault_Handler  stm32f4xx_it.o
    0x08002e82   0x00000002   PAD
    0x08002e84   0x00000026   Code   RO         2706    i.Hcf_Init          hcf.o
    0x08002eaa   0x00000040   Code   RO         2707    i.Hcf_Proc          hcf.o
    0x08002eea   0x00000002   PAD
    0x08002eec   0x00000034   Code   RO         1355    i.Hci_Init          hci.o
    0x08002f20   0x00000010   Code   RO         1356    i.Hci_MouseBtn      hci.o
    0x08002f30   0x0000000c   Code   RO         1357    i.Hci_PreProc       hci.o
    0x08002f3c   0x00000018   Code   RO         1358    i.Hci_Proc          hci.o
    0x08002f54   0x0000001e   Code   RO         2724    i.Hcp_Dec           hcp.o
    0x08002f72   0x0000001c   Code   RO         2726    i.Hcp_Init          hcp.o
    0x08002f8e   0x000000a8   Code   RO         3861    i.IST8310_AuxCfg    ist8310_drv.o
    0x08003036   0x00000002   PAD
    0x08003038   0x0000000e   Code   RO         3837    i.IST8310_Config    ist8310.o
    0x08003046   0x00000062   Code   RO         3897    i.IST8310_I2C_Read_Reg  ist8310_i2c.o
    0x080030a8   0x00000056   Code   RO         3898    i.IST8310_I2C_Write_Reg  ist8310_i2c.o
    0x080030fe   0x00000174   Code   RO         3862    i.IST8310_Init      ist8310_drv.o
    0x08003272   0x00000002   PAD
    0x08003274   0x0000000c   Code   RO         1406    i.Ini_Init          ini.o
    0x08003280   0x00000004   Code   RO         1407    i.Ini_IsDone        ini.o
    0x08003284   0x00000090   Code   RO         1408    i.Ini_Proc          ini.o
    0x08003314   0x00000004   Code   RO         1456    i.Ios_GetCh         ios.o
    0x08003318   0x0000001c   Code   RO         1457    i.Ios_Init          ios.o
    0x08003334   0x00000012   Code   RO         1458    i.Ios_PutCh         ios.o
    0x08003346   0x00000002   PAD
    0x08003348   0x00000010   Code   RO         1461    i.Ios_SetIn         ios.o
    0x08003358   0x00000010   Code   RO         1462    i.Ios_SetOut        ios.o
    0x08003368   0x00000034   Code   RO          551    i.KOS_Boot          kos.o
    0x0800339c   0x0000002c   Code   RO         3962    i.Key_Config        key.o
    0x080033c8   0x00000030   Code   RO         3992    i.Led_Config        led.o
    0x080033f8   0x0000002a   Code   RO         4077    i.MPU6500_CheckDevice  mpu6500_drv.o
    0x08003422   0x00000002   PAD
    0x08003424   0x0000000e   Code   RO         4053    i.MPU6500_Config    mpu6500.o
    0x08003432   0x00000002   PAD
    0x08003434   0x0000003c   Code   RO         4079    i.MPU6500_Init      mpu6500_drv.o
    0x08003470   0x00000060   Code   RO         4167    i.MPU6500_SPI_Read_Reg  mpu6500_spi.o
    0x080034d0   0x00000050   Code   RO         4168    i.MPU6500_SPI_Write_Reg  mpu6500_spi.o
    0x08003520   0x00000008   Code   RO         2936    i.Maf_Init          maf.o
    0x08003528   0x00000042   Code   RO         2938    i.Maf_Proc          maf.o
    0x0800356a   0x00000002   PAD
    0x0800356c   0x00000030   Code   RO         2939    i.Maf_Reset         maf.o
    0x0800359c   0x00000010   Code   RO         1543    i.Mec_Decomp        mec.o
    0x080035ac   0x00000030   Code   RO         1544    i.Mec_Init          mec.o
    0x080035dc   0x00000010   Code   RO         1545    i.Mec_Synthe        mec.o
    0x080035ec   0x0000002a   Code   RO         2979    i.Mecanum_Config    mecanum.o
    0x08003616   0x0000008e   Code   RO         2980    i.Mecanum_Decomp    mecanum.o
    0x080036a4   0x00000072   Code   RO         2981    i.Mecanum_Synthe    mecanum.o
    0x08003716   0x00000002   PAD
    0x08003718   0x00000038   Code   RO         3008    i.Med_Init          med.o
    0x08003750   0x00000042   Code   RO         3009    i.Med_Proc          med.o
    0x08003792   0x00000002   Code   RO          438    i.MemManage_Handler  stm32f4xx_it.o
    0x08003794   0x00000144   Code   RO          786    i.Motor_Process     can.o
    0x080038d8   0x0000000e   Code   RO          787    i.Motor_Ready       can.o
    0x080038e6   0x00000006   Code   RO          788    i.Motor_Reset       can.o
    0x080038ec   0x00000076   Code   RO         3039    i.Msg_Pop           msg.o
    0x08003962   0x0000004a   Code   RO         3040    i.Msg_Push          msg.o
    0x080039ac   0x00000002   Code   RO          439    i.NMI_Handler       stm32f4xx_it.o
    0x080039ae   0x0000001c   Code   RO         4357    i.NVIC_Config       stm32util.o
    0x080039ca   0x00000002   PAD
    0x080039cc   0x00000064   Code   RO         4967    i.NVIC_Init         misc.o
    0x08003a30   0x00000014   Code   RO         4968    i.NVIC_PriorityGroupConfig  misc.o
    0x08003a44   0x00000020   Code   RO         1587    i.Odo_Init          odo.o
    0x08003a64   0x00000134   Code   RO         1588    i.Odo_Proc          odo.o
    0x08003b98   0x0000011c   Code   RO         3082    i.PID_Calc          pid.o
    0x08003cb4   0x00000006   Code   RO         3083    i.PID_Config        pid.o
    0x08003cba   0x00000002   PAD
    0x08003cbc   0x00000024   Code   RO         3084    i.PID_Reset         pid.o
    0x08003ce0   0x00001544   Code   RO         4358    i.PWM_Bind          stm32util.o
    0x08005224   0x0000005c   Code   RO         4197    i.Pwm_Config        pwm.o
    0x08005280   0x00000050   Code   RO         1635    i.Pwr_Init          pwr.o
    0x080052d0   0x00000014   Code   RO         1636    i.Pwr_IsOkay        pwr.o
    0x080052e4   0x00000018   Code   RO         7879    i.RCC_AHB1PeriphClockCmd  stm32f4xx_rcc.o
    0x080052fc   0x00000018   Code   RO         7888    i.RCC_APB1PeriphClockCmd  stm32f4xx_rcc.o
    0x08005314   0x00000018   Code   RO         7891    i.RCC_APB2PeriphClockCmd  stm32f4xx_rcc.o
    0x0800532c   0x00000094   Code   RO         7900    i.RCC_GetClocksFreq  stm32f4xx_rcc.o
    0x080053c0   0x00000028   Code   RO         3109    i.Rcf_Init          rcf.o
    0x080053e8   0x00000040   Code   RO         3110    i.Rcf_Proc          rcf.o
    0x08005428   0x0000000c   Code   RO         1693    i.Rci_Init          rci.o
    0x08005434   0x0000000c   Code   RO         1695    i.Rci_PreProc       rci.o
    0x08005440   0x00000012   Code   RO         1696    i.Rci_Proc          rci.o
    0x08005452   0x00000002   PAD
    0x08005454   0x00000010   Code   RO         1697    i.Rci_Sw            rci.o
    0x08005464   0x0000004e   Code   RO         3127    i.Rcp_Dec           rcp.o
    0x080054b2   0x00000040   Code   RO         3128    i.Rcp_Enc           rcp.o
    0x080054f2   0x00000002   PAD
    0x080054f4   0x00000026   Code   RO         3129    i.Rcp_Init          rcp.o
    0x0800551a   0x00000004   Code   RO         3346    i.RcvCallback       rcv_srv.o
    0x0800551e   0x00000002   PAD
    0x08005520   0x00000094   Code   RO         4221    i.Rcv_Config        rcv.o
    0x080055b4   0x00000020   Code   RO         1241    i.Rcv_Proc          dci.o
    0x080055d4   0x0000002a   Code   RO         3151    i.Rmp_Calc          rmp.o
    0x080055fe   0x00000004   Code   RO         3152    i.Rmp_Config        rmp.o
    0x08005602   0x00000002   PAD
    0x08005604   0x00000014   Code   RO         3154    i.Rmp_Reset         rmp.o
    0x08005618   0x000009d8   Code   RO         4359    i.SPI_Bind          stm32util.o
    0x08005ff0   0x00000014   Code   RO         9052    i.SPI_Cmd           stm32f4xx_spi.o
    0x08006004   0x000000c0   Code   RO         4360    i.SPI_Config        stm32util.o
    0x080060c4   0x00000038   Code   RO         9065    i.SPI_Init          stm32f4xx_spi.o
    0x080060fc   0x00000028   Code   RO         4362    i.SPI_TxRxByte      stm32util.o
    0x08006124   0x00000004   Code   RO         3322    i.SR04Callback      ext_srv.o
    0x08006128   0x00000020   Code   RO         4289    i.SR04_Bind         sr04.o
    0x08006148   0x0000001c   Code   RO         4290    i.SR04_Config       sr04.o
    0x08006164   0x00000068   Code   RO         4291    i.SR04_IRQHandler   sr04.o
    0x080061cc   0x00000030   Code   RO         9217    i.SYSCFG_EXTILineConfig  stm32f4xx_syscfg.o
    0x080061fc   0x00000040   Code   RO          578    i.Sch_Arrange       sch.o
    0x0800623c   0x00000018   Code   RO          580    i.Sch_Init          sch.o
    0x08006254   0x00000030   Code   RO          581    i.Sch_Proc          sch.o
    0x08006284   0x000000d0   Code   RO        10086    i.SetSysClock       system_stm32f4xx.o
    0x08006354   0x00000010   Code   RO         1751    i.Snd_Init          snd.o
    0x08006364   0x0000000c   Code   RO         1752    i.Snd_Play          snd.o
    0x08006370   0x00000040   Code   RO         1753    i.Snd_Proc          snd.o
    0x080063b0   0x0000000c   Code   RO         1754    i.Snd_Stop          snd.o
    0x080063bc   0x00000054   Code   RO         4265    i.Spi5_Config       spi5.o
    0x08006410   0x0000004a   Code   RO         1880    i.Sr04_Proc         srs.o
    0x0800645a   0x00000002   PAD
    0x0800645c   0x000000a0   Code   RO         1881    i.Srs_Fall          srs.o
    0x080064fc   0x00000012   Code   RO         1883    i.Srs_Init          srs.o
    0x0800650e   0x00000002   PAD
    0x08006510   0x0000004c   Code   RO         1885    i.Srs_Rise          srs.o
    0x0800655c   0x00000038   Code   RO         1886    i.Srs_Start         srs.o
    0x08006594   0x00000004   Code   RO         3388    i.SyncTimCallback   tim_srv.o
    0x08006598   0x0000002c   Code   RO         4572    i.SyncTim_Config    tim.o
    0x080065c4   0x00000028   Code   RO         4573    i.SyncTim_Start     tim.o
    0x080065ec   0x0000002c   Code   RO        10902    i.SysTick_Handler   port.o
    0x08006618   0x0000005c   Code   RO        10088    i.SystemInit        system_stm32f4xx.o
    0x08006674   0x0000002a   Code   RO         4575    i.TIM2_IRQHandler   tim.o
    0x0800669e   0x00000002   PAD
    0x080066a0   0x00000030   Code   RO         4576    i.TIM6_DAC_IRQHandler  tim.o
    0x080066d0   0x00000014   Code   RO         9276    i.TIM_ARRPreloadConfig  stm32f4xx_tim.o
    0x080066e4   0x00000006   Code   RO         9282    i.TIM_ClearFlag     stm32f4xx_tim.o
    0x080066ea   0x00000006   Code   RO         9283    i.TIM_ClearITPendingBit  stm32f4xx_tim.o
    0x080066f0   0x00000014   Code   RO         9288    i.TIM_Cmd           stm32f4xx_tim.o
    0x08006704   0x00000144   Code   RO         4363    i.TIM_Config        stm32util.o
    0x08006848   0x00000018   Code   RO         9309    i.TIM_GetITStatus   stm32f4xx_tim.o
    0x08006860   0x00000010   Code   RO         9313    i.TIM_ITConfig      stm32f4xx_tim.o
    0x08006870   0x00000060   Code   RO         9317    i.TIM_OC1Init       stm32f4xx_tim.o
    0x080068d0   0x0000000c   Code   RO         9320    i.TIM_OC1PreloadConfig  stm32f4xx_tim.o
    0x080068dc   0x00000080   Code   RO         9322    i.TIM_OC2Init       stm32f4xx_tim.o
    0x0800695c   0x00000014   Code   RO         9325    i.TIM_OC2PreloadConfig  stm32f4xx_tim.o
    0x08006970   0x0000007c   Code   RO         9327    i.TIM_OC3Init       stm32f4xx_tim.o
    0x080069ec   0x0000000c   Code   RO         9330    i.TIM_OC3PreloadConfig  stm32f4xx_tim.o
    0x080069f8   0x00000060   Code   RO         9332    i.TIM_OC4Init       stm32f4xx_tim.o
    0x08006a58   0x00000014   Code   RO         9334    i.TIM_OC4PreloadConfig  stm32f4xx_tim.o
    0x08006a6c   0x00000082   Code   RO         4364    i.TIM_OC_Config     stm32util.o
    0x08006aee   0x00000002   PAD
    0x08006af0   0x0000007c   Code   RO         9360    i.TIM_TimeBaseInit  stm32f4xx_tim.o
    0x08006b6c   0x00000002   Code   RO         3389    i.TickTimCallback   tim_srv.o
    0x08006b6e   0x0000002e   Code   RO         4577    i.TickTim_Config    tim.o
    0x08006b9c   0x00000022   Code   RO         4578    i.TickTim_Start     tim.o
    0x08006bbe   0x0000000e   Code   RO         4580    i.Tim_Config        tim.o
    0x08006bcc   0x0000000e   Code   RO         4581    i.Tim_Start         tim.o
    0x08006bda   0x00000004   Code   RO         3288    i.TtyRxCallback     com_srv.o
    0x08006bde   0x00000002   PAD
    0x08006be0   0x00000070   Code   RO         4652    i.Tty_Config        tty.o
    0x08006c50   0x00000044   Code   RO         4653    i.Tty_GetCh         tty.o
    0x08006c94   0x0000000c   Code   RO         4654    i.Tty_GetRxFifoFree  tty.o
    0x08006ca0   0x0000000c   Code   RO         4655    i.Tty_GetRxFifoSize  tty.o
    0x08006cac   0x0000000c   Code   RO         4656    i.Tty_GetRxFifoUsed  tty.o
    0x08006cb8   0x0000000c   Code   RO         4657    i.Tty_GetTxFifoFree  tty.o
    0x08006cc4   0x0000000c   Code   RO         4658    i.Tty_GetTxFifoSize  tty.o
    0x08006cd0   0x0000000c   Code   RO         4659    i.Tty_GetTxFifoUsed  tty.o
    0x08006cdc   0x0000001c   Code   RO         4660    i.Tty_Print         tty.o
    0x08006cf8   0x00000006   Code   RO         1110    i.Tty_Proc          com.o
    0x08006cfe   0x00000002   PAD
    0x08006d00   0x0000003c   Code   RO         4661    i.Tty_PutCh         tty.o
    0x08006d3c   0x00000050   Code   RO         4662    i.Tty_Read          tty.o
    0x08006d8c   0x00000048   Code   RO         4663    i.Tty_ReadByte      tty.o
    0x08006dd4   0x00000050   Code   RO         4664    i.Tty_Write         tty.o
    0x08006e24   0x00000044   Code   RO         4665    i.Tty_WriteByte     tty.o
    0x08006e68   0x00000074   Code   RO         4224    i.USART1_IRQHandler  rcv.o
    0x08006edc   0x00000098   Code   RO         3501    i.USART2_IRQHandler  btm.o
    0x08006f74   0x00000098   Code   RO         3736    i.USART3_IRQHandler  dbi.o
    0x0800700c   0x00000098   Code   RO         4666    i.USART6_IRQHandler  tty.o
    0x080070a4   0x00000de0   Code   RO         4365    i.USART_Bind        stm32util.o
    0x08007e84   0x00000014   Code   RO         9829    i.USART_Cmd         stm32f4xx_usart.o
    0x08007e98   0x00000190   Code   RO         4366    i.USART_Config      stm32util.o
    0x08008028   0x00000010   Code   RO         9830    i.USART_DMACmd      stm32f4xx_usart.o
    0x08008038   0x0000003e   Code   RO         9833    i.USART_GetITStatus  stm32f4xx_usart.o
    0x08008076   0x00000030   Code   RO         9835    i.USART_ITConfig    stm32f4xx_usart.o
    0x080080a6   0x00000002   PAD
    0x080080a8   0x000000ac   Code   RO         9836    i.USART_Init        stm32f4xx_usart.o
    0x08008154   0x00000008   Code   RO         9843    i.USART_ReceiveData  stm32f4xx_usart.o
    0x0800815c   0x00000008   Code   RO         9846    i.USART_SendData    stm32f4xx_usart.o
    0x08008164   0x00000038   Code   RO         2025    i.Upd_Init          upd.o
    0x0800819c   0x00000066   Code   RO         2026    i.Upd_Proc          upd.o
    0x08008202   0x00000002   PAD
    0x08008204   0x00000014   Code   RO         2055    i.Upl_Init          upl.o
    0x08008218   0x00000148   Code   RO         2056    i.Upl_Proc          upl.o
    0x08008360   0x00000108   Code   RO         2057    i.Upl_PushKylinMsg  upl.o
    0x08008468   0x000000d0   Code   RO         2058    i.Upl_PushPosCalib  upl.o
    0x08008538   0x0000002c   Code   RO         2059    i.Upl_SendMsg       upl.o
    0x08008564   0x00000002   Code   RO          440    i.UsageFault_Handler  stm32f4xx_it.o
    0x08008566   0x00000002   PAD
    0x08008568   0x00000010   Code   RO         2100    i.Wdg_Feed          wdg.o
    0x08008578   0x0000000c   Code   RO         2101    i.Wdg_GetErr        wdg.o
    0x08008584   0x0000000c   Code   RO         2103    i.Wdg_HasErr        wdg.o
    0x08008590   0x00000014   Code   RO         2104    i.Wdg_HitErr        wdg.o
    0x080085a4   0x0000002c   Code   RO         2105    i.Wdg_Init          wdg.o
    0x080085d0   0x0000001c   Code   RO         2106    i.Wdg_IsOkay        wdg.o
    0x080085ec   0x00000044   Code   RO         2107    i.Wdg_Proc          wdg.o
    0x08008630   0x0000000c   Code   RO         2159    i.Wsm_GetLastWs     wsm.o
    0x0800863c   0x0000000c   Code   RO         2160    i.Wsm_GetWs         wsm.o
    0x08008648   0x00000010   Code   RO         2161    i.Wsm_Init          wsm.o
    0x08008658   0x000000e0   Code   RO         2162    i.Wsm_Proc          wsm.o
    0x08008738   0x0000008c   Code   RO          789    i.ZGyro_Process     can.o
    0x080087c4   0x0000000e   Code   RO          790    i.ZGyro_Ready       can.o
    0x080087d2   0x00000006   Code   RO          791    i.ZGyro_Reset       can.o
    0x080087d8   0x0000000e   Code   RO        11148    i.__scatterload_copy  mc_w.l(handlers.o)
    0x080087e6   0x00000002   Code   RO        11149    i.__scatterload_null  mc_w.l(handlers.o)
    0x080087e8   0x0000000e   Code   RO        11150    i.__scatterload_zeroinit  mc_w.l(handlers.o)
    0x080087f6   0x00000020   Code   RO         2607    i.constrain         fun.o
    0x08008816   0x00000002   PAD
    0x08008818   0x0000001c   Code   RO          582    i.getSchTask        sch.o
    0x08008834   0x0000003c   Code   RO         2608    i.isort             fun.o
    0x08008870   0x00000032   Code   RO            4    i.main              main.o
    0x080088a2   0x00000002   PAD
    0x080088a4   0x0000006c   Code   RO        11028    i.malloc            mc_w.l(malloc.o)
    0x08008910   0x00000038   Code   RO         2609    i.map               fun.o
    0x08008948   0x00000028   Code   RO          583    i.newSchTask        sch.o
    0x08008970   0x00000020   Code   RO        10500    i.prvResetNextTaskUnblockTime  tasks.o
    0x08008990   0x0000002c   Code   RO         2610    i.sort              fun.o
    0x080089bc   0x00000024   Code   RO        10293    i.uxListRemove      list.o
    0x080089e0   0x00000018   Code   RO        10297    i.vListInsertEnd    list.o
    0x080089f8   0x0000005c   Code   RO        10524    i.vTaskSwitchContext  tasks.o
    0x08008a54   0x000000c8   Code   RO        10533    i.xTaskIncrementTick  tasks.o
    0x08008b1c   0x000001e6   Data   RO          912    .constdata          cfg.o
    0x08008d02   0x00000002   PAD
    0x08008d04   0x00000058   Data   RO         2108    .constdata          wdg.o
    0x08008d5c   0x00000200   Data   RO         2331    .constdata          crc16.o
    0x08008f5c   0x00000004   Data   RO         3041    .constdata          msg.o
    0x08008f60   0x00000004   Data   RO         3042    .constdata          msg.o
    0x08008f64   0x00000004   Data   RO         3043    .constdata          msg.o
    0x08008f68   0x00000004   Data   RO         3044    .constdata          msg.o
    0x08008f6c   0x00000004   Data   RO         3045    .constdata          msg.o
    0x08008f70   0x00000004   Data   RO         3053    .constdata          msg.o
    0x08008f74   0x00000004   Data   RO         3059    .constdata          msg.o
    0x08008f78   0x00000004   Data   RO         3060    .constdata          msg.o
    0x08008f7c   0x00000038   Data   RO         3424    .constdata          beep.o
    0x08008fb4   0x00000010   Data   RO         4083    .constdata          mpu6500_drv.o
    0x08008fc4   0x00000020   Data   RO         4292    .constdata          sr04.o
    0x08008fe4   0x00000034   Data   RO         4668    .constdata          tty.o
    0x08009018   0x00000020   Data   RO        11146    Region$$Table       anon$$obj.o


    Execution Region RW_IRAM1 (Base: 0x20000000, Size: 0x00002dd0, Max: 0x00030000, ABSOLUTE, COMPRESSED[0x00000078])

    Base Addr    Size         Type   Attr      Idx    E Section Name        Object

    0x20000000   0x0000000c   Data   RW          584    .data               sch.o
    0x2000000c   0x00000008   Data   RW          705    .data               cal.o
    0x20000014   0x000000f3   Data   RW          913    .data               cfg.o
    0x20000107   0x00000001   PAD
    0x20000108   0x00000014   Data   RW         1001    .data               clk.o
    0x2000011c   0x00000004   Data   RW         1410    .data               ini.o
    0x20000120   0x00000008   Data   RW         1467    .data               ios.o
    0x20000128   0x00000004   Data   RW         1591    .data               odo.o
    0x2000012c   0x00000004   Data   RW         1640    .data               pwr.o
    0x20000130   0x0000000c   Data   RW         1755    .data               snd.o
    0x2000013c   0x00000004   Data   RW         2061    .data               upl.o
    0x20000140   0x0000005c   Data   RW         2109    .data               wdg.o
    0x2000019c   0x00000002   Data   RW         2163    .data               wsm.o
    0x2000019e   0x00000010   Data   RW         7932    .data               stm32f4xx_rcc.o
    0x200001ae   0x00000002   PAD
    0x200001b0   0x0000003c   Data   RW        10542    .data               tasks.o
    0x200001ec   0x00000004   Data   RW        11116    .data               mc_w.l(mvars.o)
    0x200001f0   0x00000004   Data   RW        11117    .data               mc_w.l(mvars.o)
    0x200001f4   0x0000001c   Zero   RW          704    .bss                cal.o
    0x20000210   0x000002fc   Zero   RW          792    .bss                can.o
    0x2000050c   0x0000004c   Zero   RW         1067    .bss                cmd.o
    0x20000558   0x00000238   Zero   RW         1167    .bss                ctl.o
    0x20000790   0x00000016   Zero   RW         1242    .bss                dci.o
    0x200007a6   0x00000002   PAD
    0x200007a8   0x00000278   Zero   RW         1283    .bss                dnl.o
    0x20000a20   0x000000f0   Zero   RW         1359    .bss                hci.o
    0x20000b10   0x00000014   Zero   RW         1546    .bss                mec.o
    0x20000b24   0x00000064   Zero   RW         1590    .bss                odo.o
    0x20000b88   0x000002a0   Zero   RW         1639    .bss                pwr.o
    0x20000e28   0x00000010   Zero   RW         1698    .bss                rci.o
    0x20000e38   0x00000170   Zero   RW         1889    .bss                srs.o
    0x20000fa8   0x0000025c   Zero   RW         2060    .bss                upl.o
    0x20001204   0x00000228   Zero   RW         3502    .bss                btm.o
    0x2000142c   0x00000228   Zero   RW         3737    .bss                dbi.o
    0x20001654   0x00000048   Zero   RW         4225    .bss                rcv.o
    0x2000169c   0x00000040   Zero   RW         4367    .bss                stm32util.o
    0x200016dc   0x00000228   Zero   RW         4667    .bss                tty.o
    0x20001904   0x000000c8   Zero   RW        10541    .bss                tasks.o
    0x200019cc   0x00000004   PAD
    0x200019d0   0x00001000   Zero   RW        10125    HEAP                startup_stm32f427xx.o
    0x200029d0   0x00000400   Zero   RW        10124    STACK               startup_stm32f427xx.o


==============================================================================

Image component sizes


      Code (inc. data)   RO Data    RW Data    ZI Data      Debug   Object Name

       124         18          0          0          0       1242   act.o
       108          0          0          0          0       1006   app.o
       108         22         56          0          0       3152   beep.o
        92          4          0          0          0        545   bsp.o
       324         38          0          0        552       2327   btm.o
        12          6          0          0          0        437   btn.o
       540        118          0          8         28       4413   cal.o
         0          0          0          0          0       1912   calib.o
       728         64          0          0        764       6758   can.o
       216         24          0          0          0       1629   can1.o
       220         26          0          0          0       1637   can2.o
         8          0          0          0          0       1274   can_srv.o
         6          0          0          0          0       1316   cbus.o
      1050         54          0          0          0       2351   cci.o
       332         24        486        243          0       6009   cfg.o
        44          4          0         20          0       9270   clk.o
       328         12          0          0         76       1504   cmd.o
        32          0          0          0          0       1756   com.o
        12          0          0          0          0       1416   com_srv.o
       130          4        512          0          0       2487   crc16.o
         0          0          0          0          0       7160   croutine.o
       836         92          0          0        568       5136   ctl.o
       392         46          0          0        552       2859   dbi.o
         0          0          0          0          0       2752   dbuf.o
        44          0          0          0          0       1403   dbus.o
       128          8          0          0         22       2060   dci.o
        24          0          0          0          0        611   delay.o
       408         52          0          0        632       2278   dnl.o
       110          6          0          0          0       2318   ekf.o
         0          0          0          0          0       7856   event_groups.o
         4          0          0          0          0        507   ext_srv.o
       224          0          0          0          0       6174   fifo.o
       310         52          0          0          0       2807   flash.o
        32         12          0          0          0       1291   fos.o
       258          0          0          0          0       5412   fun.o
       102          0          0          0          0       1474   hcf.o
       608         58          0          0        240       4037   hci.o
        58          0          0          0          0       1333   hcp.o
       160         22          0          4          0       1523   ini.o
        82         22          0          8          0       2909   ios.o
        14          0          0          0          0        481   ist8310.o
       540          0          0          0          0       1492   ist8310_drv.o
       184          0          0          0          0       1727   ist8310_i2c.o
        44         10          0          0          0        489   key.o
        52         10          0          0          0        483   kos.o
        48          8          0          0          0        493   led.o
        60          0          0          0          0       1480   list.o
       122          6          0          0          0       2322   maf.o
        50          0          0          0          0      28385   main.o
        80         20          0          0         20       1589   mec.o
       298          0          0          0          0       2551   mecanum.o
       122          6          0          0          0       1866   med.o
       120         14          0          0          0       1595   misc.o
       150          0          0          0          0       1690   motor.o
        14          0          0          0          0        481   mpu6500.o
       102          4         16          0          0       1657   mpu6500_drv.o
       176         18          0          0          0       1811   mpu6500_spi.o
       192          0         32          0          0      10791   msg.o
       520         74          0          4        100       2832   odo.o
       326         12          0          0          0       2860   pid.o
       226         22          0          0          0       3810   port.o
        92         10          0          0          0        485   pwm.o
       100         12          0          4        672       1612   pwr.o
       104          0          0          0          0       1494   rcf.o
       494         60          0          0         16       3397   rci.o
       180          0          0          0          0       1867   rcp.o
       264         34          0          0         72       1621   rcv.o
         4          0          0          0          0        730   rcv_srv.o
        66          6          0          0          0       2224   rmp.o
       204         22          0         12          0       3960   sch.o
       104         20          0         12          0       4096   snd.o
        84         10          0          0          0        530   spi5.o
       164         18         32          0          0       2985   sr04.o
       384         24          0          0        368       4303   srs.o
        36          8        428          0       5120        852   startup_stm32f427xx.o
      1108         24          0          0          0       7774   stm32f4xx_can.o
       166          4          0          0          0       5042   stm32f4xx_dma.o
       156         20          0          0          0       2821   stm32f4xx_exti.o
       334         36          0          0          0       4972   stm32f4xx_flash.o
       230          0          0          0          0       4408   stm32f4xx_gpio.o
        12          0          0          0          0     336773   stm32f4xx_it.o
       220         34          0         16          0       4927   stm32f4xx_rcc.o
        76          0          0          0          0       1841   stm32f4xx_spi.o
        48          6          0          0          0        704   stm32f4xx_syscfg.o
       724         60          0          0          0      11492   stm32f4xx_tim.o
       334          8          0          0          0       5702   stm32f4xx_usart.o
     14214        416          0          0         64      38182   stm32util.o
         8          0          0          0          0       3050   sys.o
       300         36          0          0          0       1601   system_stm32f4xx.o
       324         24          0         60        200       6504   tasks.o
       282         18          0          0          0       4357   tim.o
         6          0          0          0          0        916   tim_srv.o
       792        120         52          0        552       8909   tty.o
       158         14          0          0          0       1086   upd.o
       864        114          0          4        604       3326   upl.o
       200         40         88         92          0       3987   wdg.o
       264         30          0          2          0       2194   wsm.o

    ----------------------------------------------------------------------
     34814       2220       1736        492      11228     675950   Object Totals
         0          0         32          0          0          0   (incl. Generated)
        80          0          2          3          6          0   (incl. Padding)

    ----------------------------------------------------------------------

      Code (inc. data)   RO Data    RW Data    ZI Data      Debug   Library Member Name

        86          0          0          0          0          0   __dczerorl2.o
         0          0          0          0          0          0   entry.o
         0          0          0          0          0          0   entry10a.o
         0          0          0          0          0          0   entry11a.o
         8          4          0          0          0          0   entry2.o
         4          0          0          0          0          0   entry5.o
         0          0          0          0          0          0   entry7b.o
         0          0          0          0          0          0   entry8b.o
         8          4          0          0          0          0   entry9a.o
        30          0          0          0          0          0   handlers.o
        36          8          0          0          0         68   init.o
       108         16          0          0          0         84   malloc.o
        36          0          0          0          0         68   memcpya.o
        36          0          0          0          0        108   memseta.o
         0          0          0          8          0          0   mvars.o
        14          0          0          0          0         68   strlen.o

    ----------------------------------------------------------------------
       370         32          0          8          0        396   Library Totals
         4          0          0          0          0          0   (incl. Padding)

    ----------------------------------------------------------------------

      Code (inc. data)   RO Data    RW Data    ZI Data      Debug   Library Name

       366         32          0          8          0        396   mc_w.l

    ----------------------------------------------------------------------
       370         32          0          8          0        396   Library Totals

    ----------------------------------------------------------------------

==============================================================================


      Code (inc. data)   RO Data    RW Data    ZI Data      Debug   

     35184       2252       1736        500      11228     643826   Grand Totals
     35184       2252       1736        120      11228     643826   ELF Image Totals (compressed)
     35184       2252       1736        120          0          0   ROM Totals

==============================================================================

    Total RO  Size (Code + RO Data)                36920 (  36.05kB)
    Total RW  Size (RW Data + ZI Data)             11728 (  11.45kB)
    Total ROM Size (Code + RO Data + RW Data)      37040 (  36.17kB)

==============================================================================

